{
  "contractName": "Image",
  "abi": [
    {
      "inputs": [],
      "stateMutability": "nonpayable",
      "type": "constructor"
    },
    {
      "anonymous": false,
      "inputs": [
        {
          "indexed": true,
          "internalType": "address",
          "name": "account",
          "type": "address"
        },
        {
          "indexed": true,
          "internalType": "address",
          "name": "operator",
          "type": "address"
        },
        {
          "indexed": false,
          "internalType": "bool",
          "name": "approved",
          "type": "bool"
        }
      ],
      "name": "ApprovalForAll",
      "type": "event"
    },
    {
      "anonymous": false,
      "inputs": [
        {
          "indexed": true,
          "internalType": "address",
          "name": "operator",
          "type": "address"
        },
        {
          "indexed": true,
          "internalType": "address",
          "name": "from",
          "type": "address"
        },
        {
          "indexed": true,
          "internalType": "address",
          "name": "to",
          "type": "address"
        },
        {
          "indexed": false,
          "internalType": "uint256[]",
          "name": "ids",
          "type": "uint256[]"
        },
        {
          "indexed": false,
          "internalType": "uint256[]",
          "name": "values",
          "type": "uint256[]"
        }
      ],
      "name": "TransferBatch",
      "type": "event"
    },
    {
      "anonymous": false,
      "inputs": [
        {
          "indexed": true,
          "internalType": "address",
          "name": "operator",
          "type": "address"
        },
        {
          "indexed": true,
          "internalType": "address",
          "name": "from",
          "type": "address"
        },
        {
          "indexed": true,
          "internalType": "address",
          "name": "to",
          "type": "address"
        },
        {
          "indexed": false,
          "internalType": "uint256",
          "name": "id",
          "type": "uint256"
        },
        {
          "indexed": false,
          "internalType": "uint256",
          "name": "value",
          "type": "uint256"
        }
      ],
      "name": "TransferSingle",
      "type": "event"
    },
    {
      "anonymous": false,
      "inputs": [
        {
          "indexed": false,
          "internalType": "string",
          "name": "value",
          "type": "string"
        },
        {
          "indexed": true,
          "internalType": "uint256",
          "name": "id",
          "type": "uint256"
        }
      ],
      "name": "URI",
      "type": "event"
    },
    {
      "inputs": [
        {
          "internalType": "address",
          "name": "account",
          "type": "address"
        },
        {
          "internalType": "uint256",
          "name": "id",
          "type": "uint256"
        }
      ],
      "name": "balanceOf",
      "outputs": [
        {
          "internalType": "uint256",
          "name": "",
          "type": "uint256"
        }
      ],
      "stateMutability": "view",
      "type": "function",
      "constant": true
    },
    {
      "inputs": [
        {
          "internalType": "address[]",
          "name": "accounts",
          "type": "address[]"
        },
        {
          "internalType": "uint256[]",
          "name": "ids",
          "type": "uint256[]"
        }
      ],
      "name": "balanceOfBatch",
      "outputs": [
        {
          "internalType": "uint256[]",
          "name": "",
          "type": "uint256[]"
        }
      ],
      "stateMutability": "view",
      "type": "function",
      "constant": true
    },
    {
      "inputs": [
        {
          "internalType": "address",
          "name": "account",
          "type": "address"
        },
        {
          "internalType": "address",
          "name": "operator",
          "type": "address"
        }
      ],
      "name": "isApprovedForAll",
      "outputs": [
        {
          "internalType": "bool",
          "name": "",
          "type": "bool"
        }
      ],
      "stateMutability": "view",
      "type": "function",
      "constant": true
    },
    {
      "inputs": [
        {
          "internalType": "address",
          "name": "from",
          "type": "address"
        },
        {
          "internalType": "address",
          "name": "to",
          "type": "address"
        },
        {
          "internalType": "uint256[]",
          "name": "ids",
          "type": "uint256[]"
        },
        {
          "internalType": "uint256[]",
          "name": "amounts",
          "type": "uint256[]"
        },
        {
          "internalType": "bytes",
          "name": "data",
          "type": "bytes"
        }
      ],
      "name": "safeBatchTransferFrom",
      "outputs": [],
      "stateMutability": "nonpayable",
      "type": "function"
    },
    {
      "inputs": [
        {
          "internalType": "address",
          "name": "from",
          "type": "address"
        },
        {
          "internalType": "address",
          "name": "to",
          "type": "address"
        },
        {
          "internalType": "uint256",
          "name": "id",
          "type": "uint256"
        },
        {
          "internalType": "uint256",
          "name": "amount",
          "type": "uint256"
        },
        {
          "internalType": "bytes",
          "name": "data",
          "type": "bytes"
        }
      ],
      "name": "safeTransferFrom",
      "outputs": [],
      "stateMutability": "nonpayable",
      "type": "function"
    },
    {
      "inputs": [
        {
          "internalType": "address",
          "name": "operator",
          "type": "address"
        },
        {
          "internalType": "bool",
          "name": "approved",
          "type": "bool"
        }
      ],
      "name": "setApprovalForAll",
      "outputs": [],
      "stateMutability": "nonpayable",
      "type": "function"
    },
    {
      "inputs": [
        {
          "internalType": "bytes4",
          "name": "interfaceId",
          "type": "bytes4"
        }
      ],
      "name": "supportsInterface",
      "outputs": [
        {
          "internalType": "bool",
          "name": "",
          "type": "bool"
        }
      ],
      "stateMutability": "view",
      "type": "function",
      "constant": true
    },
    {
      "inputs": [
        {
          "internalType": "uint256",
          "name": "",
          "type": "uint256"
        }
      ],
      "name": "uri",
      "outputs": [
        {
          "internalType": "string",
          "name": "",
          "type": "string"
        }
      ],
      "stateMutability": "view",
      "type": "function",
      "constant": true
    },
    {
      "inputs": [
        {
          "internalType": "uint256",
          "name": "_id",
          "type": "uint256"
        },
        {
          "internalType": "uint256",
          "name": "_amount",
          "type": "uint256"
        },
        {
          "internalType": "bytes",
          "name": "_data",
          "type": "bytes"
        },
        {
          "internalType": "string",
          "name": "_uri",
          "type": "string"
        }
      ],
      "name": "createNFT",
      "outputs": [],
      "stateMutability": "nonpayable",
      "type": "function"
    },
    {
      "inputs": [
        {
          "internalType": "uint256",
          "name": "_id",
          "type": "uint256"
        },
        {
          "internalType": "string",
          "name": "_newuri",
          "type": "string"
        }
      ],
      "name": "changeURI",
      "outputs": [],
      "stateMutability": "nonpayable",
      "type": "function"
    }
  ],
  "bytecode": "0x60806040523480156200001157600080fd5b506040518060600160405280603d815260200162002d72603d91396200003d816200004460201b60201c565b5062000175565b80600290805190602001906200005c92919062000060565b5050565b8280546200006e9062000110565b90600052602060002090601f016020900481019282620000925760008555620000de565b82601f10620000ad57805160ff1916838001178555620000de565b82800160010185558215620000de579182015b82811115620000dd578251825591602001919060010190620000c0565b5b509050620000ed9190620000f1565b5090565b5b808211156200010c576000816000905550600101620000f2565b5090565b600060028204905060018216806200012957607f821691505b6020821081141562000140576200013f62000146565b5b50919050565b7f4e487b7100000000000000000000000000000000000000000000000000000000600052602260045260246000fd5b612bed80620001856000396000f3fe608060405234801561001057600080fd5b506004361061009d5760003560e01c8063a22cb46511610066578063a22cb4651461017e578063d47cd8281461019a578063da6af971146101b6578063e985e9c5146101d2578063f242432a146102025761009d565b8062fdd58e146100a257806301ffc9a7146100d25780630e89341c146101025780632eb2c2d6146101325780634e1273f41461014e575b600080fd5b6100bc60048036038101906100b79190611ae1565b61021e565b6040516100c991906122c0565b60405180910390f35b6100ec60048036038101906100e79190611b99565b6102e7565b6040516100f99190612123565b60405180910390f35b61011c60048036038101906101179190611bf3565b6103c9565b604051610129919061213e565b60405180910390f35b61014c6004803603810190610147919061193b565b61045d565b005b61016860048036038101906101639190611b21565b610807565b60405161017591906120ca565b60405180910390f35b61019860048036038101906101939190611aa1565b610920565b005b6101b460048036038101906101af9190611c7c565b610aa1565b005b6101d060048036038101906101cb9190611c20565b610b30565b005b6101ec60048036038101906101e791906118fb565b610b47565b6040516101f99190612123565b60405180910390f35b61021c60048036038101906102179190611a0a565b610bdb565b005b60008073ffffffffffffffffffffffffffffffffffffffff168373ffffffffffffffffffffffffffffffffffffffff16141561028f576040517f08c379a0000000000000000000000000000000000000000000000000000000008152600401610286906121a0565b60405180910390fd5b60008083815260200190815260200160002060008473ffffffffffffffffffffffffffffffffffffffff1673ffffffffffffffffffffffffffffffffffffffff16815260200190815260200160002054905092915050565b60007fd9b67a26000000000000000000000000000000000000000000000000000000007bffffffffffffffffffffffffffffffffffffffffffffffffffffffff1916827bffffffffffffffffffffffffffffffffffffffffffffffffffffffff191614806103b257507f0e89341c000000000000000000000000000000000000000000000000000000007bffffffffffffffffffffffffffffffffffffffffffffffffffffffff1916827bffffffffffffffffffffffffffffffffffffffffffffffffffffffff1916145b806103c257506103c182610ef3565b5b9050919050565b6060600280546103d89061259f565b80601f01602080910402602001604051908101604052809291908181526020018280546104049061259f565b80156104515780601f1061042657610100808354040283529160200191610451565b820191906000526020600020905b81548152906001019060200180831161043457829003601f168201915b50505050509050919050565b81518351146104a1576040517f08c379a000000000000000000000000000000000000000000000000000000000815260040161049890612280565b60405180910390fd5b600073ffffffffffffffffffffffffffffffffffffffff168473ffffffffffffffffffffffffffffffffffffffff161415610511576040517f08c379a0000000000000000000000000000000000000000000000000000000008152600401610508906121e0565b60405180910390fd5b610519610f5d565b73ffffffffffffffffffffffffffffffffffffffff168573ffffffffffffffffffffffffffffffffffffffff16148061055f575061055e85610559610f5d565b610b47565b5b61059e576040517f08c379a000000000000000000000000000000000000000000000000000000000815260040161059590612200565b60405180910390fd5b60006105a8610f5d565b90506105b8818787878787610f65565b60005b84518110156107725760008582815181106105d9576105d86126a9565b5b6020026020010151905060008583815181106105f8576105f76126a9565b5b60200260200101519050600080600084815260200190815260200160002060008b73ffffffffffffffffffffffffffffffffffffffff1673ffffffffffffffffffffffffffffffffffffffff16815260200190815260200160002054905081811015610699576040517f08c379a000000000000000000000000000000000000000000000000000000000815260040161069090612220565b60405180910390fd5b81816106a591906124b5565b60008085815260200190815260200160002060008c73ffffffffffffffffffffffffffffffffffffffff1673ffffffffffffffffffffffffffffffffffffffff168152602001908152602001600020819055508160008085815260200190815260200160002060008b73ffffffffffffffffffffffffffffffffffffffff1673ffffffffffffffffffffffffffffffffffffffff1681526020019081526020016000206000828254610757919061245f565b925050819055505050508061076b90612602565b90506105bb565b508473ffffffffffffffffffffffffffffffffffffffff168673ffffffffffffffffffffffffffffffffffffffff168273ffffffffffffffffffffffffffffffffffffffff167f4a39dc06d4c0dbc64b70af90fd698a233a518aa5d07e595d983b8c0526c8f7fb87876040516107e99291906120ec565b60405180910390a46107ff818787878787610f6d565b505050505050565b6060815183511461084d576040517f08c379a000000000000000000000000000000000000000000000000000000000815260040161084490612260565b60405180910390fd5b6000835167ffffffffffffffff81111561086a576108696126d8565b5b6040519080825280602002602001820160405280156108985781602001602082028036833780820191505090505b50905060005b8451811015610915576108e58582815181106108bd576108bc6126a9565b5b60200260200101518583815181106108d8576108d76126a9565b5b602002602001015161021e565b8282815181106108f8576108f76126a9565b5b6020026020010181815250508061090e90612602565b905061089e565b508091505092915050565b8173ffffffffffffffffffffffffffffffffffffffff1661093f610f5d565b73ffffffffffffffffffffffffffffffffffffffff161415610996576040517f08c379a000000000000000000000000000000000000000000000000000000000815260040161098d90612240565b60405180910390fd5b80600160006109a3610f5d565b73ffffffffffffffffffffffffffffffffffffffff1673ffffffffffffffffffffffffffffffffffffffff16815260200190815260200160002060008473ffffffffffffffffffffffffffffffffffffffff1673ffffffffffffffffffffffffffffffffffffffff16815260200190815260200160002060006101000a81548160ff0219169083151502179055508173ffffffffffffffffffffffffffffffffffffffff16610a50610f5d565b73ffffffffffffffffffffffffffffffffffffffff167f17307eab39ab6107e8899845ad3d59bd9653f200f220920489ca2b5937696c3183604051610a959190612123565b60405180910390a35050565b6003600085815260200190815260200160002060009054906101000a900460ff1615610acc57600080fd5b600481604051610adc9190611ff1565b908152602001604051809103902060009054906101000a900460ff1615610b0257600080fd5b610b0b84611154565b610b158482611183565b610b1e816111af565b610b2a338585856111c9565b50505050565b610b3a8282611183565b610b43816111af565b5050565b6000600160008473ffffffffffffffffffffffffffffffffffffffff1673ffffffffffffffffffffffffffffffffffffffff16815260200190815260200160002060008373ffffffffffffffffffffffffffffffffffffffff1673ffffffffffffffffffffffffffffffffffffffff16815260200190815260200160002060009054906101000a900460ff16905092915050565b600073ffffffffffffffffffffffffffffffffffffffff168473ffffffffffffffffffffffffffffffffffffffff161415610c4b576040517f08c379a0000000000000000000000000000000000000000000000000000000008152600401610c42906121e0565b60405180910390fd5b610c53610f5d565b73ffffffffffffffffffffffffffffffffffffffff168573ffffffffffffffffffffffffffffffffffffffff161480610c995750610c9885610c93610f5d565b610b47565b5b610cd8576040517f08c379a0000000000000000000000000000000000000000000000000000000008152600401610ccf906121c0565b60405180910390fd5b6000610ce2610f5d565b9050610d02818787610cf38861135f565b610cfc8861135f565b87610f65565b600080600086815260200190815260200160002060008873ffffffffffffffffffffffffffffffffffffffff1673ffffffffffffffffffffffffffffffffffffffff16815260200190815260200160002054905083811015610d99576040517f08c379a0000000000000000000000000000000000000000000000000000000008152600401610d9090612220565b60405180910390fd5b8381610da591906124b5565b60008087815260200190815260200160002060008973ffffffffffffffffffffffffffffffffffffffff1673ffffffffffffffffffffffffffffffffffffffff168152602001908152602001600020819055508360008087815260200190815260200160002060008873ffffffffffffffffffffffffffffffffffffffff1673ffffffffffffffffffffffffffffffffffffffff1681526020019081526020016000206000828254610e57919061245f565b925050819055508573ffffffffffffffffffffffffffffffffffffffff168773ffffffffffffffffffffffffffffffffffffffff168373ffffffffffffffffffffffffffffffffffffffff167fc3d58168c5ae7397731d063d5bbf3d657854427343f4c083240f7aacaa2d0f628888604051610ed49291906122db565b60405180910390a4610eea8288888888886113d9565b50505050505050565b60007f01ffc9a7000000000000000000000000000000000000000000000000000000007bffffffffffffffffffffffffffffffffffffffffffffffffffffffff1916827bffffffffffffffffffffffffffffffffffffffffffffffffffffffff1916149050919050565b600033905090565b505050505050565b610f8c8473ffffffffffffffffffffffffffffffffffffffff166115c0565b1561114c578373ffffffffffffffffffffffffffffffffffffffff1663bc197c8187878686866040518663ffffffff1660e01b8152600401610fd2959493929190612008565b602060405180830381600087803b158015610fec57600080fd5b505af192505050801561101d57506040513d601f19601f8201168201806040525081019061101a9190611bc6565b60015b6110c357611029612707565b806308c379a01415611086575061103e612ac5565b806110495750611088565b806040517f08c379a000000000000000000000000000000000000000000000000000000000815260040161107d919061213e565b60405180910390fd5b505b6040517f08c379a00000000000000000000000000000000000000000000000000000000081526004016110ba90612160565b60405180910390fd5b63bc197c8160e01b7bffffffffffffffffffffffffffffffffffffffffffffffffffffffff1916817bffffffffffffffffffffffffffffffffffffffffffffffffffffffff19161461114a576040517f08c379a000000000000000000000000000000000000000000000000000000000815260040161114190612180565b60405180910390fd5b505b505050505050565b60016003600083815260200190815260200160002060006101000a81548160ff02191690831515021790555050565b806005600084815260200190815260200160002090805190602001906111aa9291906115d3565b505050565b80600290805190602001906111c59291906115d3565b5050565b600073ffffffffffffffffffffffffffffffffffffffff168473ffffffffffffffffffffffffffffffffffffffff161415611239576040517f08c379a0000000000000000000000000000000000000000000000000000000008152600401611230906122a0565b60405180910390fd5b6000611243610f5d565b9050611264816000876112558861135f565b61125e8861135f565b87610f65565b8260008086815260200190815260200160002060008773ffffffffffffffffffffffffffffffffffffffff1673ffffffffffffffffffffffffffffffffffffffff16815260200190815260200160002060008282546112c3919061245f565b925050819055508473ffffffffffffffffffffffffffffffffffffffff16600073ffffffffffffffffffffffffffffffffffffffff168273ffffffffffffffffffffffffffffffffffffffff167fc3d58168c5ae7397731d063d5bbf3d657854427343f4c083240f7aacaa2d0f6287876040516113419291906122db565b60405180910390a4611358816000878787876113d9565b5050505050565b60606000600167ffffffffffffffff81111561137e5761137d6126d8565b5b6040519080825280602002602001820160405280156113ac5781602001602082028036833780820191505090505b50905082816000815181106113c4576113c36126a9565b5b60200260200101818152505080915050919050565b6113f88473ffffffffffffffffffffffffffffffffffffffff166115c0565b156115b8578373ffffffffffffffffffffffffffffffffffffffff1663f23a6e6187878686866040518663ffffffff1660e01b815260040161143e959493929190612070565b602060405180830381600087803b15801561145857600080fd5b505af192505050801561148957506040513d601f19601f820116820180604052508101906114869190611bc6565b60015b61152f57611495612707565b806308c379a014156114f257506114aa612ac5565b806114b557506114f4565b806040517f08c379a00000000000000000000000000000000000000000000000000000000081526004016114e9919061213e565b60405180910390fd5b505b6040517f08c379a000000000000000000000000000000000000000000000000000000000815260040161152690612160565b60405180910390fd5b63f23a6e6160e01b7bffffffffffffffffffffffffffffffffffffffffffffffffffffffff1916817bffffffffffffffffffffffffffffffffffffffffffffffffffffffff1916146115b6576040517f08c379a00000000000000000000000000000000000000000000000000000000081526004016115ad90612180565b60405180910390fd5b505b505050505050565b600080823b905060008111915050919050565b8280546115df9061259f565b90600052602060002090601f0160209004810192826116015760008555611648565b82601f1061161a57805160ff1916838001178555611648565b82800160010185558215611648579182015b8281111561164757825182559160200191906001019061162c565b5b5090506116559190611659565b5090565b5b8082111561167257600081600090555060010161165a565b5090565b600061168961168484612329565b612304565b905080838252602082019050828560208602820111156116ac576116ab61272e565b5b60005b858110156116dc57816116c288826117da565b8452602084019350602083019250506001810190506116af565b5050509392505050565b60006116f96116f484612355565b612304565b9050808382526020820190508285602086028201111561171c5761171b61272e565b5b60005b8581101561174c578161173288826118e6565b84526020840193506020830192505060018101905061171f565b5050509392505050565b600061176961176484612381565b612304565b90508281526020810184848401111561178557611784612733565b5b61179084828561255d565b509392505050565b60006117ab6117a6846123b2565b612304565b9050828152602081018484840111156117c7576117c6612733565b5b6117d284828561255d565b509392505050565b6000813590506117e981612b5b565b92915050565b600082601f83011261180457611803612729565b5b8135611814848260208601611676565b91505092915050565b600082601f83011261183257611831612729565b5b81356118428482602086016116e6565b91505092915050565b60008135905061185a81612b72565b92915050565b60008135905061186f81612b89565b92915050565b60008151905061188481612b89565b92915050565b600082601f83011261189f5761189e612729565b5b81356118af848260208601611756565b91505092915050565b600082601f8301126118cd576118cc612729565b5b81356118dd848260208601611798565b91505092915050565b6000813590506118f581612ba0565b92915050565b600080604083850312156119125761191161273d565b5b6000611920858286016117da565b9250506020611931858286016117da565b9150509250929050565b600080600080600060a086880312156119575761195661273d565b5b6000611965888289016117da565b9550506020611976888289016117da565b945050604086013567ffffffffffffffff81111561199757611996612738565b5b6119a38882890161181d565b935050606086013567ffffffffffffffff8111156119c4576119c3612738565b5b6119d08882890161181d565b925050608086013567ffffffffffffffff8111156119f1576119f0612738565b5b6119fd8882890161188a565b9150509295509295909350565b600080600080600060a08688031215611a2657611a2561273d565b5b6000611a34888289016117da565b9550506020611a45888289016117da565b9450506040611a56888289016118e6565b9350506060611a67888289016118e6565b925050608086013567ffffffffffffffff811115611a8857611a87612738565b5b611a948882890161188a565b9150509295509295909350565b60008060408385031215611ab857611ab761273d565b5b6000611ac6858286016117da565b9250506020611ad78582860161184b565b9150509250929050565b60008060408385031215611af857611af761273d565b5b6000611b06858286016117da565b9250506020611b17858286016118e6565b9150509250929050565b60008060408385031215611b3857611b3761273d565b5b600083013567ffffffffffffffff811115611b5657611b55612738565b5b611b62858286016117ef565b925050602083013567ffffffffffffffff811115611b8357611b82612738565b5b611b8f8582860161181d565b9150509250929050565b600060208284031215611baf57611bae61273d565b5b6000611bbd84828501611860565b91505092915050565b600060208284031215611bdc57611bdb61273d565b5b6000611bea84828501611875565b91505092915050565b600060208284031215611c0957611c0861273d565b5b6000611c17848285016118e6565b91505092915050565b60008060408385031215611c3757611c3661273d565b5b6000611c45858286016118e6565b925050602083013567ffffffffffffffff811115611c6657611c65612738565b5b611c72858286016118b8565b9150509250929050565b60008060008060808587031215611c9657611c9561273d565b5b6000611ca4878288016118e6565b9450506020611cb5878288016118e6565b935050604085013567ffffffffffffffff811115611cd657611cd5612738565b5b611ce28782880161188a565b925050606085013567ffffffffffffffff811115611d0357611d02612738565b5b611d0f878288016118b8565b91505092959194509250565b6000611d278383611fd3565b60208301905092915050565b611d3c816124e9565b82525050565b6000611d4d826123f3565b611d578185612421565b9350611d62836123e3565b8060005b83811015611d93578151611d7a8882611d1b565b9750611d8583612414565b925050600181019050611d66565b5085935050505092915050565b611da9816124fb565b82525050565b6000611dba826123fe565b611dc48185612432565b9350611dd481856020860161256c565b611ddd81612742565b840191505092915050565b6000611df382612409565b611dfd8185612443565b9350611e0d81856020860161256c565b611e1681612742565b840191505092915050565b6000611e2c82612409565b611e368185612454565b9350611e4681856020860161256c565b80840191505092915050565b6000611e5f603483612443565b9150611e6a82612760565b604082019050919050565b6000611e82602883612443565b9150611e8d826127af565b604082019050919050565b6000611ea5602b83612443565b9150611eb0826127fe565b604082019050919050565b6000611ec8602983612443565b9150611ed38261284d565b604082019050919050565b6000611eeb602583612443565b9150611ef68261289c565b604082019050919050565b6000611f0e603283612443565b9150611f19826128eb565b604082019050919050565b6000611f31602a83612443565b9150611f3c8261293a565b604082019050919050565b6000611f54602983612443565b9150611f5f82612989565b604082019050919050565b6000611f77602983612443565b9150611f82826129d8565b604082019050919050565b6000611f9a602883612443565b9150611fa582612a27565b604082019050919050565b6000611fbd602183612443565b9150611fc882612a76565b604082019050919050565b611fdc81612553565b82525050565b611feb81612553565b82525050565b6000611ffd8284611e21565b915081905092915050565b600060a08201905061201d6000830188611d33565b61202a6020830187611d33565b818103604083015261203c8186611d42565b905081810360608301526120508185611d42565b905081810360808301526120648184611daf565b90509695505050505050565b600060a0820190506120856000830188611d33565b6120926020830187611d33565b61209f6040830186611fe2565b6120ac6060830185611fe2565b81810360808301526120be8184611daf565b90509695505050505050565b600060208201905081810360008301526120e48184611d42565b905092915050565b600060408201905081810360008301526121068185611d42565b9050818103602083015261211a8184611d42565b90509392505050565b60006020820190506121386000830184611da0565b92915050565b600060208201905081810360008301526121588184611de8565b905092915050565b6000602082019050818103600083015261217981611e52565b9050919050565b6000602082019050818103600083015261219981611e75565b9050919050565b600060208201905081810360008301526121b981611e98565b9050919050565b600060208201905081810360008301526121d981611ebb565b9050919050565b600060208201905081810360008301526121f981611ede565b9050919050565b6000602082019050818103600083015261221981611f01565b9050919050565b6000602082019050818103600083015261223981611f24565b9050919050565b6000602082019050818103600083015261225981611f47565b9050919050565b6000602082019050818103600083015261227981611f6a565b9050919050565b6000602082019050818103600083015261229981611f8d565b9050919050565b600060208201905081810360008301526122b981611fb0565b9050919050565b60006020820190506122d56000830184611fe2565b92915050565b60006040820190506122f06000830185611fe2565b6122fd6020830184611fe2565b9392505050565b600061230e61231f565b905061231a82826125d1565b919050565b6000604051905090565b600067ffffffffffffffff821115612344576123436126d8565b5b602082029050602081019050919050565b600067ffffffffffffffff8211156123705761236f6126d8565b5b602082029050602081019050919050565b600067ffffffffffffffff82111561239c5761239b6126d8565b5b6123a582612742565b9050602081019050919050565b600067ffffffffffffffff8211156123cd576123cc6126d8565b5b6123d682612742565b9050602081019050919050565b6000819050602082019050919050565b600081519050919050565b600081519050919050565b600081519050919050565b6000602082019050919050565b600082825260208201905092915050565b600082825260208201905092915050565b600082825260208201905092915050565b600081905092915050565b600061246a82612553565b915061247583612553565b9250827fffffffffffffffffffffffffffffffffffffffffffffffffffffffffffffffff038211156124aa576124a961264b565b5b828201905092915050565b60006124c082612553565b91506124cb83612553565b9250828210156124de576124dd61264b565b5b828203905092915050565b60006124f482612533565b9050919050565b60008115159050919050565b60007fffffffff0000000000000000000000000000000000000000000000000000000082169050919050565b600073ffffffffffffffffffffffffffffffffffffffff82169050919050565b6000819050919050565b82818337600083830152505050565b60005b8381101561258a57808201518184015260208101905061256f565b83811115612599576000848401525b50505050565b600060028204905060018216806125b757607f821691505b602082108114156125cb576125ca61267a565b5b50919050565b6125da82612742565b810181811067ffffffffffffffff821117156125f9576125f86126d8565b5b80604052505050565b600061260d82612553565b91507fffffffffffffffffffffffffffffffffffffffffffffffffffffffffffffffff8214156126405761263f61264b565b5b600182019050919050565b7f4e487b7100000000000000000000000000000000000000000000000000000000600052601160045260246000fd5b7f4e487b7100000000000000000000000000000000000000000000000000000000600052602260045260246000fd5b7f4e487b7100000000000000000000000000000000000000000000000000000000600052603260045260246000fd5b7f4e487b7100000000000000000000000000000000000000000000000000000000600052604160045260246000fd5b600060033d11156127265760046000803e612723600051612753565b90505b90565b600080fd5b600080fd5b600080fd5b600080fd5b600080fd5b6000601f19601f8301169050919050565b60008160e01c9050919050565b7f455243313135353a207472616e7366657220746f206e6f6e204552433131353560008201527f526563656976657220696d706c656d656e746572000000000000000000000000602082015250565b7f455243313135353a204552433131353552656365697665722072656a6563746560008201527f6420746f6b656e73000000000000000000000000000000000000000000000000602082015250565b7f455243313135353a2062616c616e636520717565727920666f7220746865207a60008201527f65726f2061646472657373000000000000000000000000000000000000000000602082015250565b7f455243313135353a2063616c6c6572206973206e6f74206f776e6572206e6f7260008201527f20617070726f7665640000000000000000000000000000000000000000000000602082015250565b7f455243313135353a207472616e7366657220746f20746865207a65726f20616460008201527f6472657373000000000000000000000000000000000000000000000000000000602082015250565b7f455243313135353a207472616e736665722063616c6c6572206973206e6f742060008201527f6f776e6572206e6f7220617070726f7665640000000000000000000000000000602082015250565b7f455243313135353a20696e73756666696369656e742062616c616e636520666f60008201527f72207472616e7366657200000000000000000000000000000000000000000000602082015250565b7f455243313135353a2073657474696e6720617070726f76616c2073746174757360008201527f20666f722073656c660000000000000000000000000000000000000000000000602082015250565b7f455243313135353a206163636f756e747320616e6420696473206c656e67746860008201527f206d69736d617463680000000000000000000000000000000000000000000000602082015250565b7f455243313135353a2069647320616e6420616d6f756e7473206c656e6774682060008201527f6d69736d61746368000000000000000000000000000000000000000000000000602082015250565b7f455243313135353a206d696e7420746f20746865207a65726f2061646472657360008201527f7300000000000000000000000000000000000000000000000000000000000000602082015250565b600060443d1015612ad557612b58565b612add61231f565b60043d036004823e80513d602482011167ffffffffffffffff82111715612b05575050612b58565b808201805167ffffffffffffffff811115612b235750505050612b58565b80602083010160043d038501811115612b40575050505050612b58565b612b4f826020018501866125d1565b82955050505050505b90565b612b64816124e9565b8114612b6f57600080fd5b50565b612b7b816124fb565b8114612b8657600080fd5b50565b612b9281612507565b8114612b9d57600080fd5b50565b612ba981612553565b8114612bb457600080fd5b5056fea2646970667358221220efdc7c5506e3495588d1419f5aecfcf2d6b1b256f844192cf2a0a9db0ac2482d64736f6c6343000805003368747470733a2f2f6162636f61746875702e6769746875622e696f2f53616d706c65455243313135352f6170692f746f6b656e2f7b69647d2e6a736f6e",
  "immutableReferences": {},
  "source": "//SPDX-License-Identifier: MIT License\r\npragma solidity ^0.8.0;\r\n\r\nimport \"@openzeppelin/contracts/token/ERC1155/ERC1155.sol\";\r\n\r\ncontract Image is ERC1155 {\r\n\r\n    mapping(uint256 => bool) _idExistTracker;\r\n    mapping(string => bool) _uriExistTracker;\r\n\r\n    mapping(uint256 => string) _uriOfId;\r\n\r\n    constructor() ERC1155(\"https://abcoathup.github.io/SampleERC1155/api/token/{id}.json\") {\r\n        // _mint(msg.sender, GOLD, 10**18, \"\");\r\n    }\r\n\r\n    //function to create an NFT - mint and set the uri\r\n    function createNFT(uint256 _id, uint256 _amount, bytes memory _data, string memory _uri) public{\r\n        // require some lists - maybe id and uri?\r\n        require(!_idExistTracker[_id]);\r\n        require(!_uriExistTracker[_uri]);\r\n\r\n        addId(_id);\r\n        // add uri to bool list here\r\n\r\n        setIdURI(_id, _uri);\r\n\r\n        _setURI(_uri);\r\n        _mint(msg.sender, _id, _amount, _data);\r\n    }\r\n\r\n    // function to change the URI of a particular NFT\r\n    function changeURI (uint _id, string memory _newuri ) public{\r\n        // _setURI(_newuri);\r\n\r\n        //remove old uri from bool list here\r\n        \r\n        // new uri\r\n        setIdURI(_id, _newuri);\r\n        _setURI(_newuri);\r\n    }\r\n\r\n    function addId (uint256 _id) private{\r\n        _idExistTracker[_id] = true;\r\n    }\r\n\r\n    function setIdURI (uint256 _anId, string memory _aUri) private{\r\n        _uriOfId[_anId] = _aUri;\r\n    }\r\n\r\n}",
  "sourcePath": "C:/Users/01uni/Documents/GitHub/image_nft_project_actual/image_nft_project/src/contracts/Image.sol",
  "compiler": {
    "name": "solc",
    "version": "0.8.5+commit.a4f2e591.Emscripten.clang"
  },
  "schemaVersion": "3.4.1",
  "updatedAt": "2021-06-15T09:28:03.567Z",
  "networkType": "ethereum",
  "devdoc": {
    "kind": "dev",
    "methods": {
      "balanceOf(address,uint256)": {
        "details": "See {IERC1155-balanceOf}. Requirements: - `account` cannot be the zero address."
      },
      "balanceOfBatch(address[],uint256[])": {
        "details": "See {IERC1155-balanceOfBatch}. Requirements: - `accounts` and `ids` must have the same length."
      },
      "isApprovedForAll(address,address)": {
        "details": "See {IERC1155-isApprovedForAll}."
      },
      "safeBatchTransferFrom(address,address,uint256[],uint256[],bytes)": {
        "details": "See {IERC1155-safeBatchTransferFrom}."
      },
      "safeTransferFrom(address,address,uint256,uint256,bytes)": {
        "details": "See {IERC1155-safeTransferFrom}."
      },
      "setApprovalForAll(address,bool)": {
        "details": "See {IERC1155-setApprovalForAll}."
      },
      "supportsInterface(bytes4)": {
        "details": "See {IERC165-supportsInterface}."
      },
      "uri(uint256)": {
        "details": "See {IERC1155MetadataURI-uri}. This implementation returns the same URI for *all* token types. It relies on the token type ID substitution mechanism https://eips.ethereum.org/EIPS/eip-1155#metadata[defined in the EIP]. Clients calling this function must replace the `\\{id\\}` substring with the actual token type ID."
      }
    },
    "version": 1
  },
  "userdoc": {
    "kind": "user",
    "methods": {},
    "version": 1
  }
}