{
  "contractName": "Image",
  "abi": [
    {
      "inputs": [],
      "stateMutability": "nonpayable",
      "type": "constructor"
    },
    {
      "anonymous": false,
      "inputs": [
        {
          "indexed": true,
          "internalType": "address",
          "name": "account",
          "type": "address"
        },
        {
          "indexed": true,
          "internalType": "address",
          "name": "operator",
          "type": "address"
        },
        {
          "indexed": false,
          "internalType": "bool",
          "name": "approved",
          "type": "bool"
        }
      ],
      "name": "ApprovalForAll",
      "type": "event"
    },
    {
      "anonymous": false,
      "inputs": [
        {
          "indexed": true,
          "internalType": "address",
          "name": "operator",
          "type": "address"
        },
        {
          "indexed": true,
          "internalType": "address",
          "name": "from",
          "type": "address"
        },
        {
          "indexed": true,
          "internalType": "address",
          "name": "to",
          "type": "address"
        },
        {
          "indexed": false,
          "internalType": "uint256[]",
          "name": "ids",
          "type": "uint256[]"
        },
        {
          "indexed": false,
          "internalType": "uint256[]",
          "name": "values",
          "type": "uint256[]"
        }
      ],
      "name": "TransferBatch",
      "type": "event"
    },
    {
      "anonymous": false,
      "inputs": [
        {
          "indexed": true,
          "internalType": "address",
          "name": "operator",
          "type": "address"
        },
        {
          "indexed": true,
          "internalType": "address",
          "name": "from",
          "type": "address"
        },
        {
          "indexed": true,
          "internalType": "address",
          "name": "to",
          "type": "address"
        },
        {
          "indexed": false,
          "internalType": "uint256",
          "name": "id",
          "type": "uint256"
        },
        {
          "indexed": false,
          "internalType": "uint256",
          "name": "value",
          "type": "uint256"
        }
      ],
      "name": "TransferSingle",
      "type": "event"
    },
    {
      "anonymous": false,
      "inputs": [
        {
          "indexed": false,
          "internalType": "string",
          "name": "value",
          "type": "string"
        },
        {
          "indexed": true,
          "internalType": "uint256",
          "name": "id",
          "type": "uint256"
        }
      ],
      "name": "URI",
      "type": "event"
    },
    {
      "inputs": [
        {
          "internalType": "uint256",
          "name": "",
          "type": "uint256"
        }
      ],
      "name": "_idExistTracker",
      "outputs": [
        {
          "internalType": "bool",
          "name": "",
          "type": "bool"
        }
      ],
      "stateMutability": "view",
      "type": "function",
      "constant": true
    },
    {
      "inputs": [
        {
          "internalType": "uint256",
          "name": "",
          "type": "uint256"
        }
      ],
      "name": "_uriOfId",
      "outputs": [
        {
          "internalType": "string",
          "name": "",
          "type": "string"
        }
      ],
      "stateMutability": "view",
      "type": "function",
      "constant": true
    },
    {
      "inputs": [
        {
          "internalType": "uint256",
          "name": "",
          "type": "uint256"
        }
      ],
      "name": "allIDs",
      "outputs": [
        {
          "internalType": "uint256",
          "name": "",
          "type": "uint256"
        }
      ],
      "stateMutability": "view",
      "type": "function",
      "constant": true
    },
    {
      "inputs": [
        {
          "internalType": "address",
          "name": "account",
          "type": "address"
        },
        {
          "internalType": "uint256",
          "name": "id",
          "type": "uint256"
        }
      ],
      "name": "balanceOf",
      "outputs": [
        {
          "internalType": "uint256",
          "name": "",
          "type": "uint256"
        }
      ],
      "stateMutability": "view",
      "type": "function",
      "constant": true
    },
    {
      "inputs": [
        {
          "internalType": "address[]",
          "name": "accounts",
          "type": "address[]"
        },
        {
          "internalType": "uint256[]",
          "name": "ids",
          "type": "uint256[]"
        }
      ],
      "name": "balanceOfBatch",
      "outputs": [
        {
          "internalType": "uint256[]",
          "name": "",
          "type": "uint256[]"
        }
      ],
      "stateMutability": "view",
      "type": "function",
      "constant": true
    },
    {
      "inputs": [
        {
          "internalType": "address",
          "name": "account",
          "type": "address"
        },
        {
          "internalType": "address",
          "name": "operator",
          "type": "address"
        }
      ],
      "name": "isApprovedForAll",
      "outputs": [
        {
          "internalType": "bool",
          "name": "",
          "type": "bool"
        }
      ],
      "stateMutability": "view",
      "type": "function",
      "constant": true
    },
    {
      "inputs": [
        {
          "internalType": "address",
          "name": "from",
          "type": "address"
        },
        {
          "internalType": "address",
          "name": "to",
          "type": "address"
        },
        {
          "internalType": "uint256[]",
          "name": "ids",
          "type": "uint256[]"
        },
        {
          "internalType": "uint256[]",
          "name": "amounts",
          "type": "uint256[]"
        },
        {
          "internalType": "bytes",
          "name": "data",
          "type": "bytes"
        }
      ],
      "name": "safeBatchTransferFrom",
      "outputs": [],
      "stateMutability": "nonpayable",
      "type": "function"
    },
    {
      "inputs": [
        {
          "internalType": "address",
          "name": "from",
          "type": "address"
        },
        {
          "internalType": "address",
          "name": "to",
          "type": "address"
        },
        {
          "internalType": "uint256",
          "name": "id",
          "type": "uint256"
        },
        {
          "internalType": "uint256",
          "name": "amount",
          "type": "uint256"
        },
        {
          "internalType": "bytes",
          "name": "data",
          "type": "bytes"
        }
      ],
      "name": "safeTransferFrom",
      "outputs": [],
      "stateMutability": "nonpayable",
      "type": "function"
    },
    {
      "inputs": [
        {
          "internalType": "address",
          "name": "operator",
          "type": "address"
        },
        {
          "internalType": "bool",
          "name": "approved",
          "type": "bool"
        }
      ],
      "name": "setApprovalForAll",
      "outputs": [],
      "stateMutability": "nonpayable",
      "type": "function"
    },
    {
      "inputs": [
        {
          "internalType": "bytes4",
          "name": "interfaceId",
          "type": "bytes4"
        }
      ],
      "name": "supportsInterface",
      "outputs": [
        {
          "internalType": "bool",
          "name": "",
          "type": "bool"
        }
      ],
      "stateMutability": "view",
      "type": "function",
      "constant": true
    },
    {
      "inputs": [
        {
          "internalType": "uint256",
          "name": "_id",
          "type": "uint256"
        },
        {
          "internalType": "uint256",
          "name": "_amount",
          "type": "uint256"
        },
        {
          "internalType": "bytes",
          "name": "_data",
          "type": "bytes"
        },
        {
          "internalType": "string",
          "name": "_uri",
          "type": "string"
        }
      ],
      "name": "createNFT",
      "outputs": [],
      "stateMutability": "nonpayable",
      "type": "function"
    },
    {
      "inputs": [
        {
          "internalType": "uint256",
          "name": "_anId",
          "type": "uint256"
        },
        {
          "internalType": "string",
          "name": "_aUri",
          "type": "string"
        }
      ],
      "name": "setIdURI",
      "outputs": [],
      "stateMutability": "nonpayable",
      "type": "function"
    },
    {
      "inputs": [
        {
          "internalType": "uint256",
          "name": "id",
          "type": "uint256"
        }
      ],
      "name": "uri",
      "outputs": [
        {
          "internalType": "string",
          "name": "",
          "type": "string"
        }
      ],
      "stateMutability": "view",
      "type": "function",
      "constant": true
    },
    {
      "inputs": [],
      "name": "getTotalSupply",
      "outputs": [
        {
          "internalType": "uint256",
          "name": "",
          "type": "uint256"
        }
      ],
      "stateMutability": "view",
      "type": "function",
      "constant": true
    },
    {
      "inputs": [],
      "name": "getAllIDs",
      "outputs": [
        {
          "internalType": "uint256[]",
          "name": "",
          "type": "uint256[]"
        }
      ],
      "stateMutability": "view",
      "type": "function",
      "constant": true
    }
  ],
  "bytecode": "0x60806040523480156200001157600080fd5b506040518060200160405280600081525062000033816200003a60201b60201c565b506200016b565b80600290805190602001906200005292919062000056565b5050565b828054620000649062000106565b90600052602060002090601f016020900481019282620000885760008555620000d4565b82601f10620000a357805160ff1916838001178555620000d4565b82800160010185558215620000d4579182015b82811115620000d3578251825591602001919060010190620000b6565b5b509050620000e39190620000e7565b5090565b5b8082111562000102576000816000905550600101620000e8565b5090565b600060028204905060018216806200011f57607f821691505b602082108114156200013657620001356200013c565b5b50919050565b7f4e487b7100000000000000000000000000000000000000000000000000000000600052602260045260246000fd5b612dd0806200017b6000396000f3fe608060405234801561001057600080fd5b50600436106100f45760003560e01c8063992abeba11610097578063e4220f2711610066578063e4220f27146102a7578063e985e9c5146102c5578063f242432a146102f5578063fee02f8614610311576100f4565b8063992abeba14610221578063a22cb46514610251578063c4e41b221461026d578063d47cd8281461028b576100f4565b80630e89341c116100d35780630e89341c146101895780632eb2c2d6146101b95780634e1273f4146101d55780638bf8e1a614610205576100f4565b8062fdd58e146100f957806301ffc9a7146101295780630784893214610159575b600080fd5b610113600480360381019061010e9190611d17565b610341565b60405161012091906124ae565b60405180910390f35b610143600480360381019061013e9190611dcf565b61040a565b6040516101509190612311565b60405180910390f35b610173600480360381019061016e9190611e29565b6104ec565b60405161018091906124ae565b60405180910390f35b6101a3600480360381019061019e9190611e29565b610510565b6040516101b0919061232c565b60405180910390f35b6101d360048036038101906101ce9190611b71565b6105b5565b005b6101ef60048036038101906101ea9190611d57565b61095f565b6040516101fc91906122b8565b60405180910390f35b61021f600480360381019061021a9190611e56565b610a78565b005b61023b60048036038101906102369190611e29565b610aa4565b6040516102489190612311565b60405180910390f35b61026b60048036038101906102669190611cd7565b610ac4565b005b610275610c45565b60405161028291906124ae565b60405180910390f35b6102a560048036038101906102a09190611eb2565b610c52565b005b6102af610ca2565b6040516102bc91906122b8565b60405180910390f35b6102df60048036038101906102da9190611b31565b610cfa565b6040516102ec9190612311565b60405180910390f35b61030f600480360381019061030a9190611c40565b610d8e565b005b61032b60048036038101906103269190611e29565b6110a6565b604051610338919061232c565b60405180910390f35b60008073ffffffffffffffffffffffffffffffffffffffff168373ffffffffffffffffffffffffffffffffffffffff1614156103b2576040517f08c379a00000000000000000000000000000000000000000000000000000000081526004016103a99061238e565b60405180910390fd5b60008083815260200190815260200160002060008473ffffffffffffffffffffffffffffffffffffffff1673ffffffffffffffffffffffffffffffffffffffff16815260200190815260200160002054905092915050565b60007fd9b67a26000000000000000000000000000000000000000000000000000000007bffffffffffffffffffffffffffffffffffffffffffffffffffffffff1916827bffffffffffffffffffffffffffffffffffffffffffffffffffffffff191614806104d557507f0e89341c000000000000000000000000000000000000000000000000000000007bffffffffffffffffffffffffffffffffffffffffffffffffffffffff1916827bffffffffffffffffffffffffffffffffffffffffffffffffffffffff1916145b806104e557506104e482611146565b5b9050919050565b600581815481106104fc57600080fd5b906000526020600020016000915090505481565b606060046000838152602001908152602001600020805461053090612782565b80601f016020809104026020016040519081016040528092919081815260200182805461055c90612782565b80156105a95780601f1061057e576101008083540402835291602001916105a9565b820191906000526020600020905b81548152906001019060200180831161058c57829003601f168201915b50505050509050919050565b81518351146105f9576040517f08c379a00000000000000000000000000000000000000000000000000000000081526004016105f09061246e565b60405180910390fd5b600073ffffffffffffffffffffffffffffffffffffffff168473ffffffffffffffffffffffffffffffffffffffff161415610669576040517f08c379a0000000000000000000000000000000000000000000000000000000008152600401610660906123ce565b60405180910390fd5b6106716111b0565b73ffffffffffffffffffffffffffffffffffffffff168573ffffffffffffffffffffffffffffffffffffffff1614806106b757506106b6856106b16111b0565b610cfa565b5b6106f6576040517f08c379a00000000000000000000000000000000000000000000000000000000081526004016106ed906123ee565b60405180910390fd5b60006107006111b0565b90506107108187878787876111b8565b60005b84518110156108ca5760008582815181106107315761073061288c565b5b6020026020010151905060008583815181106107505761074f61288c565b5b60200260200101519050600080600084815260200190815260200160002060008b73ffffffffffffffffffffffffffffffffffffffff1673ffffffffffffffffffffffffffffffffffffffff168152602001908152602001600020549050818110156107f1576040517f08c379a00000000000000000000000000000000000000000000000000000000081526004016107e89061240e565b60405180910390fd5b81816107fd9190612698565b60008085815260200190815260200160002060008c73ffffffffffffffffffffffffffffffffffffffff1673ffffffffffffffffffffffffffffffffffffffff168152602001908152602001600020819055508160008085815260200190815260200160002060008b73ffffffffffffffffffffffffffffffffffffffff1673ffffffffffffffffffffffffffffffffffffffff16815260200190815260200160002060008282546108af9190612642565b92505081905550505050806108c3906127e5565b9050610713565b508473ffffffffffffffffffffffffffffffffffffffff168673ffffffffffffffffffffffffffffffffffffffff168273ffffffffffffffffffffffffffffffffffffffff167f4a39dc06d4c0dbc64b70af90fd698a233a518aa5d07e595d983b8c0526c8f7fb87876040516109419291906122da565b60405180910390a46109578187878787876111c0565b505050505050565b606081518351146109a5576040517f08c379a000000000000000000000000000000000000000000000000000000000815260040161099c9061244e565b60405180910390fd5b6000835167ffffffffffffffff8111156109c2576109c16128bb565b5b6040519080825280602002602001820160405280156109f05781602001602082028036833780820191505090505b50905060005b8451811015610a6d57610a3d858281518110610a1557610a1461288c565b5b6020026020010151858381518110610a3057610a2f61288c565b5b6020026020010151610341565b828281518110610a5057610a4f61288c565b5b60200260200101818152505080610a66906127e5565b90506109f6565b508091505092915050565b80600460008481526020019081526020016000209080519060200190610a9f929190611809565b505050565b60036020528060005260406000206000915054906101000a900460ff1681565b8173ffffffffffffffffffffffffffffffffffffffff16610ae36111b0565b73ffffffffffffffffffffffffffffffffffffffff161415610b3a576040517f08c379a0000000000000000000000000000000000000000000000000000000008152600401610b319061242e565b60405180910390fd5b8060016000610b476111b0565b73ffffffffffffffffffffffffffffffffffffffff1673ffffffffffffffffffffffffffffffffffffffff16815260200190815260200160002060008473ffffffffffffffffffffffffffffffffffffffff1673ffffffffffffffffffffffffffffffffffffffff16815260200190815260200160002060006101000a81548160ff0219169083151502179055508173ffffffffffffffffffffffffffffffffffffffff16610bf46111b0565b73ffffffffffffffffffffffffffffffffffffffff167f17307eab39ab6107e8899845ad3d59bd9653f200f220920489ca2b5937696c3183604051610c399190612311565b60405180910390a35050565b6000600580549050905090565b6003600085815260200190815260200160002060009054906101000a900460ff1615610c7d57600080fd5b610c86846113a7565b610c908482610a78565b610c9c338585856113ff565b50505050565b60606005805480602002602001604051908101604052809291908181526020018280548015610cf057602002820191906000526020600020905b815481526020019060010190808311610cdc575b5050505050905090565b6000600160008473ffffffffffffffffffffffffffffffffffffffff1673ffffffffffffffffffffffffffffffffffffffff16815260200190815260200160002060008373ffffffffffffffffffffffffffffffffffffffff1673ffffffffffffffffffffffffffffffffffffffff16815260200190815260200160002060009054906101000a900460ff16905092915050565b600073ffffffffffffffffffffffffffffffffffffffff168473ffffffffffffffffffffffffffffffffffffffff161415610dfe576040517f08c379a0000000000000000000000000000000000000000000000000000000008152600401610df5906123ce565b60405180910390fd5b610e066111b0565b73ffffffffffffffffffffffffffffffffffffffff168573ffffffffffffffffffffffffffffffffffffffff161480610e4c5750610e4b85610e466111b0565b610cfa565b5b610e8b576040517f08c379a0000000000000000000000000000000000000000000000000000000008152600401610e82906123ae565b60405180910390fd5b6000610e956111b0565b9050610eb5818787610ea688611595565b610eaf88611595565b876111b8565b600080600086815260200190815260200160002060008873ffffffffffffffffffffffffffffffffffffffff1673ffffffffffffffffffffffffffffffffffffffff16815260200190815260200160002054905083811015610f4c576040517f08c379a0000000000000000000000000000000000000000000000000000000008152600401610f439061240e565b60405180910390fd5b8381610f589190612698565b60008087815260200190815260200160002060008973ffffffffffffffffffffffffffffffffffffffff1673ffffffffffffffffffffffffffffffffffffffff168152602001908152602001600020819055508360008087815260200190815260200160002060008873ffffffffffffffffffffffffffffffffffffffff1673ffffffffffffffffffffffffffffffffffffffff168152602001908152602001600020600082825461100a9190612642565b925050819055508573ffffffffffffffffffffffffffffffffffffffff168773ffffffffffffffffffffffffffffffffffffffff168373ffffffffffffffffffffffffffffffffffffffff167fc3d58168c5ae7397731d063d5bbf3d657854427343f4c083240f7aacaa2d0f6288886040516110879291906124c9565b60405180910390a461109d82888888888861160f565b50505050505050565b600460205280600052604060002060009150905080546110c590612782565b80601f01602080910402602001604051908101604052809291908181526020018280546110f190612782565b801561113e5780601f106111135761010080835404028352916020019161113e565b820191906000526020600020905b81548152906001019060200180831161112157829003601f168201915b505050505081565b60007f01ffc9a7000000000000000000000000000000000000000000000000000000007bffffffffffffffffffffffffffffffffffffffffffffffffffffffff1916827bffffffffffffffffffffffffffffffffffffffffffffffffffffffff1916149050919050565b600033905090565b505050505050565b6111df8473ffffffffffffffffffffffffffffffffffffffff166117f6565b1561139f578373ffffffffffffffffffffffffffffffffffffffff1663bc197c8187878686866040518663ffffffff1660e01b81526004016112259594939291906121f6565b602060405180830381600087803b15801561123f57600080fd5b505af192505050801561127057506040513d601f19601f8201168201806040525081019061126d9190611dfc565b60015b6113165761127c6128ea565b806308c379a014156112d95750611291612ca8565b8061129c57506112db565b806040517f08c379a00000000000000000000000000000000000000000000000000000000081526004016112d0919061232c565b60405180910390fd5b505b6040517f08c379a000000000000000000000000000000000000000000000000000000000815260040161130d9061234e565b60405180910390fd5b63bc197c8160e01b7bffffffffffffffffffffffffffffffffffffffffffffffffffffffff1916817bffffffffffffffffffffffffffffffffffffffffffffffffffffffff19161461139d576040517f08c379a00000000000000000000000000000000000000000000000000000000081526004016113949061236e565b60405180910390fd5b505b505050505050565b600581908060018154018082558091505060019003906000526020600020016000909190919091505560016003600083815260200190815260200160002060006101000a81548160ff02191690831515021790555050565b600073ffffffffffffffffffffffffffffffffffffffff168473ffffffffffffffffffffffffffffffffffffffff16141561146f576040517f08c379a00000000000000000000000000000000000000000000000000000000081526004016114669061248e565b60405180910390fd5b60006114796111b0565b905061149a8160008761148b88611595565b61149488611595565b876111b8565b8260008086815260200190815260200160002060008773ffffffffffffffffffffffffffffffffffffffff1673ffffffffffffffffffffffffffffffffffffffff16815260200190815260200160002060008282546114f99190612642565b925050819055508473ffffffffffffffffffffffffffffffffffffffff16600073ffffffffffffffffffffffffffffffffffffffff168273ffffffffffffffffffffffffffffffffffffffff167fc3d58168c5ae7397731d063d5bbf3d657854427343f4c083240f7aacaa2d0f6287876040516115779291906124c9565b60405180910390a461158e8160008787878761160f565b5050505050565b60606000600167ffffffffffffffff8111156115b4576115b36128bb565b5b6040519080825280602002602001820160405280156115e25781602001602082028036833780820191505090505b50905082816000815181106115fa576115f961288c565b5b60200260200101818152505080915050919050565b61162e8473ffffffffffffffffffffffffffffffffffffffff166117f6565b156117ee578373ffffffffffffffffffffffffffffffffffffffff1663f23a6e6187878686866040518663ffffffff1660e01b815260040161167495949392919061225e565b602060405180830381600087803b15801561168e57600080fd5b505af19250505080156116bf57506040513d601f19601f820116820180604052508101906116bc9190611dfc565b60015b611765576116cb6128ea565b806308c379a0141561172857506116e0612ca8565b806116eb575061172a565b806040517f08c379a000000000000000000000000000000000000000000000000000000000815260040161171f919061232c565b60405180910390fd5b505b6040517f08c379a000000000000000000000000000000000000000000000000000000000815260040161175c9061234e565b60405180910390fd5b63f23a6e6160e01b7bffffffffffffffffffffffffffffffffffffffffffffffffffffffff1916817bffffffffffffffffffffffffffffffffffffffffffffffffffffffff1916146117ec576040517f08c379a00000000000000000000000000000000000000000000000000000000081526004016117e39061236e565b60405180910390fd5b505b505050505050565b600080823b905060008111915050919050565b82805461181590612782565b90600052602060002090601f016020900481019282611837576000855561187e565b82601f1061185057805160ff191683800117855561187e565b8280016001018555821561187e579182015b8281111561187d578251825591602001919060010190611862565b5b50905061188b919061188f565b5090565b5b808211156118a8576000816000905550600101611890565b5090565b60006118bf6118ba84612517565b6124f2565b905080838252602082019050828560208602820111156118e2576118e1612911565b5b60005b8581101561191257816118f88882611a10565b8452602084019350602083019250506001810190506118e5565b5050509392505050565b600061192f61192a84612543565b6124f2565b9050808382526020820190508285602086028201111561195257611951612911565b5b60005b8581101561198257816119688882611b1c565b845260208401935060208301925050600181019050611955565b5050509392505050565b600061199f61199a8461256f565b6124f2565b9050828152602081018484840111156119bb576119ba612916565b5b6119c6848285612740565b509392505050565b60006119e16119dc846125a0565b6124f2565b9050828152602081018484840111156119fd576119fc612916565b5b611a08848285612740565b509392505050565b600081359050611a1f81612d3e565b92915050565b600082601f830112611a3a57611a3961290c565b5b8135611a4a8482602086016118ac565b91505092915050565b600082601f830112611a6857611a6761290c565b5b8135611a7884826020860161191c565b91505092915050565b600081359050611a9081612d55565b92915050565b600081359050611aa581612d6c565b92915050565b600081519050611aba81612d6c565b92915050565b600082601f830112611ad557611ad461290c565b5b8135611ae584826020860161198c565b91505092915050565b600082601f830112611b0357611b0261290c565b5b8135611b138482602086016119ce565b91505092915050565b600081359050611b2b81612d83565b92915050565b60008060408385031215611b4857611b47612920565b5b6000611b5685828601611a10565b9250506020611b6785828601611a10565b9150509250929050565b600080600080600060a08688031215611b8d57611b8c612920565b5b6000611b9b88828901611a10565b9550506020611bac88828901611a10565b945050604086013567ffffffffffffffff811115611bcd57611bcc61291b565b5b611bd988828901611a53565b935050606086013567ffffffffffffffff811115611bfa57611bf961291b565b5b611c0688828901611a53565b925050608086013567ffffffffffffffff811115611c2757611c2661291b565b5b611c3388828901611ac0565b9150509295509295909350565b600080600080600060a08688031215611c5c57611c5b612920565b5b6000611c6a88828901611a10565b9550506020611c7b88828901611a10565b9450506040611c8c88828901611b1c565b9350506060611c9d88828901611b1c565b925050608086013567ffffffffffffffff811115611cbe57611cbd61291b565b5b611cca88828901611ac0565b9150509295509295909350565b60008060408385031215611cee57611ced612920565b5b6000611cfc85828601611a10565b9250506020611d0d85828601611a81565b9150509250929050565b60008060408385031215611d2e57611d2d612920565b5b6000611d3c85828601611a10565b9250506020611d4d85828601611b1c565b9150509250929050565b60008060408385031215611d6e57611d6d612920565b5b600083013567ffffffffffffffff811115611d8c57611d8b61291b565b5b611d9885828601611a25565b925050602083013567ffffffffffffffff811115611db957611db861291b565b5b611dc585828601611a53565b9150509250929050565b600060208284031215611de557611de4612920565b5b6000611df384828501611a96565b91505092915050565b600060208284031215611e1257611e11612920565b5b6000611e2084828501611aab565b91505092915050565b600060208284031215611e3f57611e3e612920565b5b6000611e4d84828501611b1c565b91505092915050565b60008060408385031215611e6d57611e6c612920565b5b6000611e7b85828601611b1c565b925050602083013567ffffffffffffffff811115611e9c57611e9b61291b565b5b611ea885828601611aee565b9150509250929050565b60008060008060808587031215611ecc57611ecb612920565b5b6000611eda87828801611b1c565b9450506020611eeb87828801611b1c565b935050604085013567ffffffffffffffff811115611f0c57611f0b61291b565b5b611f1887828801611ac0565b925050606085013567ffffffffffffffff811115611f3957611f3861291b565b5b611f4587828801611aee565b91505092959194509250565b6000611f5d83836121d8565b60208301905092915050565b611f72816126cc565b82525050565b6000611f83826125e1565b611f8d818561260f565b9350611f98836125d1565b8060005b83811015611fc9578151611fb08882611f51565b9750611fbb83612602565b925050600181019050611f9c565b5085935050505092915050565b611fdf816126de565b82525050565b6000611ff0826125ec565b611ffa8185612620565b935061200a81856020860161274f565b61201381612925565b840191505092915050565b6000612029826125f7565b6120338185612631565b935061204381856020860161274f565b61204c81612925565b840191505092915050565b6000612064603483612631565b915061206f82612943565b604082019050919050565b6000612087602883612631565b915061209282612992565b604082019050919050565b60006120aa602b83612631565b91506120b5826129e1565b604082019050919050565b60006120cd602983612631565b91506120d882612a30565b604082019050919050565b60006120f0602583612631565b91506120fb82612a7f565b604082019050919050565b6000612113603283612631565b915061211e82612ace565b604082019050919050565b6000612136602a83612631565b915061214182612b1d565b604082019050919050565b6000612159602983612631565b915061216482612b6c565b604082019050919050565b600061217c602983612631565b915061218782612bbb565b604082019050919050565b600061219f602883612631565b91506121aa82612c0a565b604082019050919050565b60006121c2602183612631565b91506121cd82612c59565b604082019050919050565b6121e181612736565b82525050565b6121f081612736565b82525050565b600060a08201905061220b6000830188611f69565b6122186020830187611f69565b818103604083015261222a8186611f78565b9050818103606083015261223e8185611f78565b905081810360808301526122528184611fe5565b90509695505050505050565b600060a0820190506122736000830188611f69565b6122806020830187611f69565b61228d60408301866121e7565b61229a60608301856121e7565b81810360808301526122ac8184611fe5565b90509695505050505050565b600060208201905081810360008301526122d28184611f78565b905092915050565b600060408201905081810360008301526122f48185611f78565b905081810360208301526123088184611f78565b90509392505050565b60006020820190506123266000830184611fd6565b92915050565b60006020820190508181036000830152612346818461201e565b905092915050565b6000602082019050818103600083015261236781612057565b9050919050565b600060208201905081810360008301526123878161207a565b9050919050565b600060208201905081810360008301526123a78161209d565b9050919050565b600060208201905081810360008301526123c7816120c0565b9050919050565b600060208201905081810360008301526123e7816120e3565b9050919050565b6000602082019050818103600083015261240781612106565b9050919050565b6000602082019050818103600083015261242781612129565b9050919050565b600060208201905081810360008301526124478161214c565b9050919050565b600060208201905081810360008301526124678161216f565b9050919050565b6000602082019050818103600083015261248781612192565b9050919050565b600060208201905081810360008301526124a7816121b5565b9050919050565b60006020820190506124c360008301846121e7565b92915050565b60006040820190506124de60008301856121e7565b6124eb60208301846121e7565b9392505050565b60006124fc61250d565b905061250882826127b4565b919050565b6000604051905090565b600067ffffffffffffffff821115612532576125316128bb565b5b602082029050602081019050919050565b600067ffffffffffffffff82111561255e5761255d6128bb565b5b602082029050602081019050919050565b600067ffffffffffffffff82111561258a576125896128bb565b5b61259382612925565b9050602081019050919050565b600067ffffffffffffffff8211156125bb576125ba6128bb565b5b6125c482612925565b9050602081019050919050565b6000819050602082019050919050565b600081519050919050565b600081519050919050565b600081519050919050565b6000602082019050919050565b600082825260208201905092915050565b600082825260208201905092915050565b600082825260208201905092915050565b600061264d82612736565b915061265883612736565b9250827fffffffffffffffffffffffffffffffffffffffffffffffffffffffffffffffff0382111561268d5761268c61282e565b5b828201905092915050565b60006126a382612736565b91506126ae83612736565b9250828210156126c1576126c061282e565b5b828203905092915050565b60006126d782612716565b9050919050565b60008115159050919050565b60007fffffffff0000000000000000000000000000000000000000000000000000000082169050919050565b600073ffffffffffffffffffffffffffffffffffffffff82169050919050565b6000819050919050565b82818337600083830152505050565b60005b8381101561276d578082015181840152602081019050612752565b8381111561277c576000848401525b50505050565b6000600282049050600182168061279a57607f821691505b602082108114156127ae576127ad61285d565b5b50919050565b6127bd82612925565b810181811067ffffffffffffffff821117156127dc576127db6128bb565b5b80604052505050565b60006127f082612736565b91507fffffffffffffffffffffffffffffffffffffffffffffffffffffffffffffffff8214156128235761282261282e565b5b600182019050919050565b7f4e487b7100000000000000000000000000000000000000000000000000000000600052601160045260246000fd5b7f4e487b7100000000000000000000000000000000000000000000000000000000600052602260045260246000fd5b7f4e487b7100000000000000000000000000000000000000000000000000000000600052603260045260246000fd5b7f4e487b7100000000000000000000000000000000000000000000000000000000600052604160045260246000fd5b600060033d11156129095760046000803e612906600051612936565b90505b90565b600080fd5b600080fd5b600080fd5b600080fd5b600080fd5b6000601f19601f8301169050919050565b60008160e01c9050919050565b7f455243313135353a207472616e7366657220746f206e6f6e204552433131353560008201527f526563656976657220696d706c656d656e746572000000000000000000000000602082015250565b7f455243313135353a204552433131353552656365697665722072656a6563746560008201527f6420746f6b656e73000000000000000000000000000000000000000000000000602082015250565b7f455243313135353a2062616c616e636520717565727920666f7220746865207a60008201527f65726f2061646472657373000000000000000000000000000000000000000000602082015250565b7f455243313135353a2063616c6c6572206973206e6f74206f776e6572206e6f7260008201527f20617070726f7665640000000000000000000000000000000000000000000000602082015250565b7f455243313135353a207472616e7366657220746f20746865207a65726f20616460008201527f6472657373000000000000000000000000000000000000000000000000000000602082015250565b7f455243313135353a207472616e736665722063616c6c6572206973206e6f742060008201527f6f776e6572206e6f7220617070726f7665640000000000000000000000000000602082015250565b7f455243313135353a20696e73756666696369656e742062616c616e636520666f60008201527f72207472616e7366657200000000000000000000000000000000000000000000602082015250565b7f455243313135353a2073657474696e6720617070726f76616c2073746174757360008201527f20666f722073656c660000000000000000000000000000000000000000000000602082015250565b7f455243313135353a206163636f756e747320616e6420696473206c656e67746860008201527f206d69736d617463680000000000000000000000000000000000000000000000602082015250565b7f455243313135353a2069647320616e6420616d6f756e7473206c656e6774682060008201527f6d69736d61746368000000000000000000000000000000000000000000000000602082015250565b7f455243313135353a206d696e7420746f20746865207a65726f2061646472657360008201527f7300000000000000000000000000000000000000000000000000000000000000602082015250565b600060443d1015612cb857612d3b565b612cc061250d565b60043d036004823e80513d602482011167ffffffffffffffff82111715612ce8575050612d3b565b808201805167ffffffffffffffff811115612d065750505050612d3b565b80602083010160043d038501811115612d23575050505050612d3b565b612d32826020018501866127b4565b82955050505050505b90565b612d47816126cc565b8114612d5257600080fd5b50565b612d5e816126de565b8114612d6957600080fd5b50565b612d75816126ea565b8114612d8057600080fd5b50565b612d8c81612736565b8114612d9757600080fd5b5056fea2646970667358221220c3792f5cee7b8e87496e36ffc363ac58c1f0b092b067ffef161f32e5bbe2363264736f6c63430008050033",
  "immutableReferences": {},
  "source": "//SPDX-License-Identifier: MIT License\r\npragma solidity ^0.8.0;\r\n\r\nimport \"@openzeppelin/contracts/token/ERC1155/ERC1155.sol\";\r\n\r\ncontract Image is ERC1155 {\r\n\r\n    mapping(uint => bool) public _idExistTracker;\r\n\r\n    mapping(uint => string) public _uriOfId;\r\n\r\n    uint256[] public allIDs;\r\n\r\n    //the totalSupply ie the number of unique IDs\r\n    // uint public totalSupply;\r\n\r\n    constructor() ERC1155(\"\") {\r\n        // totalSupply = 0;\r\n    }\r\n\r\n    //function to create an NFT - mint and set the uri\r\n    function createNFT(uint256 _id, uint256 _amount, bytes memory _data, string memory _uri) public{\r\n        // require that the id is unique (does not exist already)\r\n        require(!_idExistTracker[_id]);\r\n\r\n        addId(_id);\r\n\r\n        setIdURI(_id, _uri);\r\n\r\n        _mint(msg.sender, _id, _amount, _data);\r\n        \r\n    }\r\n\r\n    //add an id to the list to later track whether it exists before creating the NFT\r\n    function addId (uint256 _id) private{\r\n        // totalSupply++;\r\n        allIDs.push(_id);\r\n        _idExistTracker[_id] = true;\r\n    }\r\n\r\n    // function to change (from empty or existing) the URI of a particular NFT\r\n    function setIdURI (uint256 _anId, string memory _aUri) public{\r\n        _uriOfId[_anId] = _aUri;\r\n    }\r\n\r\n    //returns the uri of the object with the id as input\r\n    function uri(uint256 id) public view virtual override returns (string memory) {\r\n        return _uriOfId[id];\r\n    }\r\n\r\n    function getTotalSupply() public view returns(uint256){\r\n        // return totalSupply;\r\n        return allIDs.length;\r\n    }\r\n\r\n    function getAllIDs() public view returns(uint256[] memory){\r\n        return allIDs;\r\n    }\r\n\r\n}",
  "sourcePath": "C:/Users/01uni/Documents/GitHub/image_nft_project_actual/image_nft_project/src/contracts/Image.sol",
  "compiler": {
    "name": "solc",
    "version": "0.8.5+commit.a4f2e591.Emscripten.clang"
  },
  "schemaVersion": "3.4.1",
  "updatedAt": "2021-06-17T09:46:47.163Z",
  "networkType": "ethereum",
  "devdoc": {
    "kind": "dev",
    "methods": {
      "balanceOf(address,uint256)": {
        "details": "See {IERC1155-balanceOf}. Requirements: - `account` cannot be the zero address."
      },
      "balanceOfBatch(address[],uint256[])": {
        "details": "See {IERC1155-balanceOfBatch}. Requirements: - `accounts` and `ids` must have the same length."
      },
      "isApprovedForAll(address,address)": {
        "details": "See {IERC1155-isApprovedForAll}."
      },
      "safeBatchTransferFrom(address,address,uint256[],uint256[],bytes)": {
        "details": "See {IERC1155-safeBatchTransferFrom}."
      },
      "safeTransferFrom(address,address,uint256,uint256,bytes)": {
        "details": "See {IERC1155-safeTransferFrom}."
      },
      "setApprovalForAll(address,bool)": {
        "details": "See {IERC1155-setApprovalForAll}."
      },
      "supportsInterface(bytes4)": {
        "details": "See {IERC165-supportsInterface}."
      }
    },
    "version": 1
  },
  "userdoc": {
    "kind": "user",
    "methods": {},
    "version": 1
  }
}