{
  "contractName": "Image",
  "abi": [
    {
      "inputs": [],
      "stateMutability": "nonpayable",
      "type": "constructor"
    },
    {
      "anonymous": false,
      "inputs": [
        {
          "indexed": true,
          "internalType": "address",
          "name": "account",
          "type": "address"
        },
        {
          "indexed": true,
          "internalType": "address",
          "name": "operator",
          "type": "address"
        },
        {
          "indexed": false,
          "internalType": "bool",
          "name": "approved",
          "type": "bool"
        }
      ],
      "name": "ApprovalForAll",
      "type": "event"
    },
    {
      "anonymous": false,
      "inputs": [
        {
          "indexed": true,
          "internalType": "address",
          "name": "operator",
          "type": "address"
        },
        {
          "indexed": true,
          "internalType": "address",
          "name": "from",
          "type": "address"
        },
        {
          "indexed": true,
          "internalType": "address",
          "name": "to",
          "type": "address"
        },
        {
          "indexed": false,
          "internalType": "uint256[]",
          "name": "ids",
          "type": "uint256[]"
        },
        {
          "indexed": false,
          "internalType": "uint256[]",
          "name": "values",
          "type": "uint256[]"
        }
      ],
      "name": "TransferBatch",
      "type": "event"
    },
    {
      "anonymous": false,
      "inputs": [
        {
          "indexed": true,
          "internalType": "address",
          "name": "operator",
          "type": "address"
        },
        {
          "indexed": true,
          "internalType": "address",
          "name": "from",
          "type": "address"
        },
        {
          "indexed": true,
          "internalType": "address",
          "name": "to",
          "type": "address"
        },
        {
          "indexed": false,
          "internalType": "uint256",
          "name": "id",
          "type": "uint256"
        },
        {
          "indexed": false,
          "internalType": "uint256",
          "name": "value",
          "type": "uint256"
        }
      ],
      "name": "TransferSingle",
      "type": "event"
    },
    {
      "anonymous": false,
      "inputs": [
        {
          "indexed": false,
          "internalType": "string",
          "name": "value",
          "type": "string"
        },
        {
          "indexed": true,
          "internalType": "uint256",
          "name": "id",
          "type": "uint256"
        }
      ],
      "name": "URI",
      "type": "event"
    },
    {
      "inputs": [
        {
          "internalType": "address",
          "name": "account",
          "type": "address"
        },
        {
          "internalType": "uint256",
          "name": "id",
          "type": "uint256"
        }
      ],
      "name": "balanceOf",
      "outputs": [
        {
          "internalType": "uint256",
          "name": "",
          "type": "uint256"
        }
      ],
      "stateMutability": "view",
      "type": "function"
    },
    {
      "inputs": [
        {
          "internalType": "address[]",
          "name": "accounts",
          "type": "address[]"
        },
        {
          "internalType": "uint256[]",
          "name": "ids",
          "type": "uint256[]"
        }
      ],
      "name": "balanceOfBatch",
      "outputs": [
        {
          "internalType": "uint256[]",
          "name": "",
          "type": "uint256[]"
        }
      ],
      "stateMutability": "view",
      "type": "function"
    },
    {
      "inputs": [
        {
          "internalType": "address",
          "name": "account",
          "type": "address"
        },
        {
          "internalType": "address",
          "name": "operator",
          "type": "address"
        }
      ],
      "name": "isApprovedForAll",
      "outputs": [
        {
          "internalType": "bool",
          "name": "",
          "type": "bool"
        }
      ],
      "stateMutability": "view",
      "type": "function"
    },
    {
      "inputs": [
        {
          "internalType": "address",
          "name": "from",
          "type": "address"
        },
        {
          "internalType": "address",
          "name": "to",
          "type": "address"
        },
        {
          "internalType": "uint256[]",
          "name": "ids",
          "type": "uint256[]"
        },
        {
          "internalType": "uint256[]",
          "name": "amounts",
          "type": "uint256[]"
        },
        {
          "internalType": "bytes",
          "name": "data",
          "type": "bytes"
        }
      ],
      "name": "safeBatchTransferFrom",
      "outputs": [],
      "stateMutability": "nonpayable",
      "type": "function"
    },
    {
      "inputs": [
        {
          "internalType": "address",
          "name": "from",
          "type": "address"
        },
        {
          "internalType": "address",
          "name": "to",
          "type": "address"
        },
        {
          "internalType": "uint256",
          "name": "id",
          "type": "uint256"
        },
        {
          "internalType": "uint256",
          "name": "amount",
          "type": "uint256"
        },
        {
          "internalType": "bytes",
          "name": "data",
          "type": "bytes"
        }
      ],
      "name": "safeTransferFrom",
      "outputs": [],
      "stateMutability": "nonpayable",
      "type": "function"
    },
    {
      "inputs": [
        {
          "internalType": "address",
          "name": "operator",
          "type": "address"
        },
        {
          "internalType": "bool",
          "name": "approved",
          "type": "bool"
        }
      ],
      "name": "setApprovalForAll",
      "outputs": [],
      "stateMutability": "nonpayable",
      "type": "function"
    },
    {
      "inputs": [
        {
          "internalType": "bytes4",
          "name": "interfaceId",
          "type": "bytes4"
        }
      ],
      "name": "supportsInterface",
      "outputs": [
        {
          "internalType": "bool",
          "name": "",
          "type": "bool"
        }
      ],
      "stateMutability": "view",
      "type": "function"
    },
    {
      "inputs": [
        {
          "internalType": "uint256",
          "name": "",
          "type": "uint256"
        }
      ],
      "name": "uri",
      "outputs": [
        {
          "internalType": "string",
          "name": "",
          "type": "string"
        }
      ],
      "stateMutability": "view",
      "type": "function"
    },
    {
      "inputs": [
        {
          "internalType": "uint256",
          "name": "_id",
          "type": "uint256"
        },
        {
          "internalType": "uint256",
          "name": "_amount",
          "type": "uint256"
        },
        {
          "internalType": "bytes",
          "name": "_data",
          "type": "bytes"
        },
        {
          "internalType": "string",
          "name": "_uri",
          "type": "string"
        }
      ],
      "name": "createNFT",
      "outputs": [],
      "stateMutability": "nonpayable",
      "type": "function"
    },
    {
      "inputs": [
        {
          "internalType": "uint256",
          "name": "_id",
          "type": "uint256"
        },
        {
          "internalType": "string",
          "name": "_newuri",
          "type": "string"
        }
      ],
      "name": "changeURI",
      "outputs": [],
      "stateMutability": "nonpayable",
      "type": "function"
    }
  ],
  "bytecode": "0x60806040523480156200001157600080fd5b506040518060200160405280600081525062000033816200003a60201b60201c565b506200016b565b80600290805190602001906200005292919062000056565b5050565b828054620000649062000106565b90600052602060002090601f016020900481019282620000885760008555620000d4565b82601f10620000a357805160ff1916838001178555620000d4565b82800160010185558215620000d4579182015b82811115620000d3578251825591602001919060010190620000b6565b5b509050620000e39190620000e7565b5090565b5b8082111562000102576000816000905550600101620000e8565b5090565b600060028204905060018216806200011f57607f821691505b602082108114156200013657620001356200013c565b5b50919050565b7f4e487b7100000000000000000000000000000000000000000000000000000000600052602260045260246000fd5b612b5b806200017b6000396000f3fe608060405234801561001057600080fd5b506004361061009d5760003560e01c8063a22cb46511610066578063a22cb4651461017e578063d47cd8281461019a578063da6af971146101b6578063e985e9c5146101d2578063f242432a146102025761009d565b8062fdd58e146100a257806301ffc9a7146100d25780630e89341c146101025780632eb2c2d6146101325780634e1273f41461014e575b600080fd5b6100bc60048036038101906100b79190611aa2565b61021e565b6040516100c99190612239565b60405180910390f35b6100ec60048036038101906100e79190611b5a565b6102e7565b6040516100f9919061209c565b60405180910390f35b61011c60048036038101906101179190611bb4565b6103c9565b60405161012991906120b7565b60405180910390f35b61014c600480360381019061014791906118fc565b61045d565b005b61016860048036038101906101639190611ae2565b610807565b6040516101759190612043565b60405180910390f35b61019860048036038101906101939190611a62565b610920565b005b6101b460048036038101906101af9190611c3d565b610aa1565b005b6101d060048036038101906101cb9190611be1565b610af1565b005b6101ec60048036038101906101e791906118bc565b610b08565b6040516101f9919061209c565b60405180910390f35b61021c600480360381019061021791906119cb565b610b9c565b005b60008073ffffffffffffffffffffffffffffffffffffffff168373ffffffffffffffffffffffffffffffffffffffff16141561028f576040517f08c379a000000000000000000000000000000000000000000000000000000000815260040161028690612119565b60405180910390fd5b60008083815260200190815260200160002060008473ffffffffffffffffffffffffffffffffffffffff1673ffffffffffffffffffffffffffffffffffffffff16815260200190815260200160002054905092915050565b60007fd9b67a26000000000000000000000000000000000000000000000000000000007bffffffffffffffffffffffffffffffffffffffffffffffffffffffff1916827bffffffffffffffffffffffffffffffffffffffffffffffffffffffff191614806103b257507f0e89341c000000000000000000000000000000000000000000000000000000007bffffffffffffffffffffffffffffffffffffffffffffffffffffffff1916827bffffffffffffffffffffffffffffffffffffffffffffffffffffffff1916145b806103c257506103c182610eb4565b5b9050919050565b6060600280546103d89061250d565b80601f01602080910402602001604051908101604052809291908181526020018280546104049061250d565b80156104515780601f1061042657610100808354040283529160200191610451565b820191906000526020600020905b81548152906001019060200180831161043457829003601f168201915b50505050509050919050565b81518351146104a1576040517f08c379a0000000000000000000000000000000000000000000000000000000008152600401610498906121f9565b60405180910390fd5b600073ffffffffffffffffffffffffffffffffffffffff168473ffffffffffffffffffffffffffffffffffffffff161415610511576040517f08c379a000000000000000000000000000000000000000000000000000000000815260040161050890612159565b60405180910390fd5b610519610f1e565b73ffffffffffffffffffffffffffffffffffffffff168573ffffffffffffffffffffffffffffffffffffffff16148061055f575061055e85610559610f1e565b610b08565b5b61059e576040517f08c379a000000000000000000000000000000000000000000000000000000000815260040161059590612179565b60405180910390fd5b60006105a8610f1e565b90506105b8818787878787610f26565b60005b84518110156107725760008582815181106105d9576105d8612617565b5b6020026020010151905060008583815181106105f8576105f7612617565b5b60200260200101519050600080600084815260200190815260200160002060008b73ffffffffffffffffffffffffffffffffffffffff1673ffffffffffffffffffffffffffffffffffffffff16815260200190815260200160002054905081811015610699576040517f08c379a000000000000000000000000000000000000000000000000000000000815260040161069090612199565b60405180910390fd5b81816106a59190612423565b60008085815260200190815260200160002060008c73ffffffffffffffffffffffffffffffffffffffff1673ffffffffffffffffffffffffffffffffffffffff168152602001908152602001600020819055508160008085815260200190815260200160002060008b73ffffffffffffffffffffffffffffffffffffffff1673ffffffffffffffffffffffffffffffffffffffff168152602001908152602001600020600082825461075791906123cd565b925050819055505050508061076b90612570565b90506105bb565b508473ffffffffffffffffffffffffffffffffffffffff168673ffffffffffffffffffffffffffffffffffffffff168273ffffffffffffffffffffffffffffffffffffffff167f4a39dc06d4c0dbc64b70af90fd698a233a518aa5d07e595d983b8c0526c8f7fb87876040516107e9929190612065565b60405180910390a46107ff818787878787610f2e565b505050505050565b6060815183511461084d576040517f08c379a0000000000000000000000000000000000000000000000000000000008152600401610844906121d9565b60405180910390fd5b6000835167ffffffffffffffff81111561086a57610869612646565b5b6040519080825280602002602001820160405280156108985781602001602082028036833780820191505090505b50905060005b8451811015610915576108e58582815181106108bd576108bc612617565b5b60200260200101518583815181106108d8576108d7612617565b5b602002602001015161021e565b8282815181106108f8576108f7612617565b5b6020026020010181815250508061090e90612570565b905061089e565b508091505092915050565b8173ffffffffffffffffffffffffffffffffffffffff1661093f610f1e565b73ffffffffffffffffffffffffffffffffffffffff161415610996576040517f08c379a000000000000000000000000000000000000000000000000000000000815260040161098d906121b9565b60405180910390fd5b80600160006109a3610f1e565b73ffffffffffffffffffffffffffffffffffffffff1673ffffffffffffffffffffffffffffffffffffffff16815260200190815260200160002060008473ffffffffffffffffffffffffffffffffffffffff1673ffffffffffffffffffffffffffffffffffffffff16815260200190815260200160002060006101000a81548160ff0219169083151502179055508173ffffffffffffffffffffffffffffffffffffffff16610a50610f1e565b73ffffffffffffffffffffffffffffffffffffffff167f17307eab39ab6107e8899845ad3d59bd9653f200f220920489ca2b5937696c3183604051610a95919061209c565b60405180910390a35050565b6003600085815260200190815260200160002060009054906101000a900460ff1615610acc57600080fd5b610ad833858585611115565b610ae1846112ab565b610aeb84826112da565b50505050565b610afb82826112da565b610b0481611306565b5050565b6000600160008473ffffffffffffffffffffffffffffffffffffffff1673ffffffffffffffffffffffffffffffffffffffff16815260200190815260200160002060008373ffffffffffffffffffffffffffffffffffffffff1673ffffffffffffffffffffffffffffffffffffffff16815260200190815260200160002060009054906101000a900460ff16905092915050565b600073ffffffffffffffffffffffffffffffffffffffff168473ffffffffffffffffffffffffffffffffffffffff161415610c0c576040517f08c379a0000000000000000000000000000000000000000000000000000000008152600401610c0390612159565b60405180910390fd5b610c14610f1e565b73ffffffffffffffffffffffffffffffffffffffff168573ffffffffffffffffffffffffffffffffffffffff161480610c5a5750610c5985610c54610f1e565b610b08565b5b610c99576040517f08c379a0000000000000000000000000000000000000000000000000000000008152600401610c9090612139565b60405180910390fd5b6000610ca3610f1e565b9050610cc3818787610cb488611320565b610cbd88611320565b87610f26565b600080600086815260200190815260200160002060008873ffffffffffffffffffffffffffffffffffffffff1673ffffffffffffffffffffffffffffffffffffffff16815260200190815260200160002054905083811015610d5a576040517f08c379a0000000000000000000000000000000000000000000000000000000008152600401610d5190612199565b60405180910390fd5b8381610d669190612423565b60008087815260200190815260200160002060008973ffffffffffffffffffffffffffffffffffffffff1673ffffffffffffffffffffffffffffffffffffffff168152602001908152602001600020819055508360008087815260200190815260200160002060008873ffffffffffffffffffffffffffffffffffffffff1673ffffffffffffffffffffffffffffffffffffffff1681526020019081526020016000206000828254610e1891906123cd565b925050819055508573ffffffffffffffffffffffffffffffffffffffff168773ffffffffffffffffffffffffffffffffffffffff168373ffffffffffffffffffffffffffffffffffffffff167fc3d58168c5ae7397731d063d5bbf3d657854427343f4c083240f7aacaa2d0f628888604051610e95929190612254565b60405180910390a4610eab82888888888861139a565b50505050505050565b60007f01ffc9a7000000000000000000000000000000000000000000000000000000007bffffffffffffffffffffffffffffffffffffffffffffffffffffffff1916827bffffffffffffffffffffffffffffffffffffffffffffffffffffffff1916149050919050565b600033905090565b505050505050565b610f4d8473ffffffffffffffffffffffffffffffffffffffff16611581565b1561110d578373ffffffffffffffffffffffffffffffffffffffff1663bc197c8187878686866040518663ffffffff1660e01b8152600401610f93959493929190611f81565b602060405180830381600087803b158015610fad57600080fd5b505af1925050508015610fde57506040513d601f19601f82011682018060405250810190610fdb9190611b87565b60015b61108457610fea612675565b806308c379a014156110475750610fff612a33565b8061100a5750611049565b806040517f08c379a000000000000000000000000000000000000000000000000000000000815260040161103e91906120b7565b60405180910390fd5b505b6040517f08c379a000000000000000000000000000000000000000000000000000000000815260040161107b906120d9565b60405180910390fd5b63bc197c8160e01b7bffffffffffffffffffffffffffffffffffffffffffffffffffffffff1916817bffffffffffffffffffffffffffffffffffffffffffffffffffffffff19161461110b576040517f08c379a0000000000000000000000000000000000000000000000000000000008152600401611102906120f9565b60405180910390fd5b505b505050505050565b600073ffffffffffffffffffffffffffffffffffffffff168473ffffffffffffffffffffffffffffffffffffffff161415611185576040517f08c379a000000000000000000000000000000000000000000000000000000000815260040161117c90612219565b60405180910390fd5b600061118f610f1e565b90506111b0816000876111a188611320565b6111aa88611320565b87610f26565b8260008086815260200190815260200160002060008773ffffffffffffffffffffffffffffffffffffffff1673ffffffffffffffffffffffffffffffffffffffff168152602001908152602001600020600082825461120f91906123cd565b925050819055508473ffffffffffffffffffffffffffffffffffffffff16600073ffffffffffffffffffffffffffffffffffffffff168273ffffffffffffffffffffffffffffffffffffffff167fc3d58168c5ae7397731d063d5bbf3d657854427343f4c083240f7aacaa2d0f62878760405161128d929190612254565b60405180910390a46112a48160008787878761139a565b5050505050565b60016003600083815260200190815260200160002060006101000a81548160ff02191690831515021790555050565b80600460008481526020019081526020016000209080519060200190611301929190611594565b505050565b806002908051906020019061131c929190611594565b5050565b60606000600167ffffffffffffffff81111561133f5761133e612646565b5b60405190808252806020026020018201604052801561136d5781602001602082028036833780820191505090505b509050828160008151811061138557611384612617565b5b60200260200101818152505080915050919050565b6113b98473ffffffffffffffffffffffffffffffffffffffff16611581565b15611579578373ffffffffffffffffffffffffffffffffffffffff1663f23a6e6187878686866040518663ffffffff1660e01b81526004016113ff959493929190611fe9565b602060405180830381600087803b15801561141957600080fd5b505af192505050801561144a57506040513d601f19601f820116820180604052508101906114479190611b87565b60015b6114f057611456612675565b806308c379a014156114b3575061146b612a33565b8061147657506114b5565b806040517f08c379a00000000000000000000000000000000000000000000000000000000081526004016114aa91906120b7565b60405180910390fd5b505b6040517f08c379a00000000000000000000000000000000000000000000000000000000081526004016114e7906120d9565b60405180910390fd5b63f23a6e6160e01b7bffffffffffffffffffffffffffffffffffffffffffffffffffffffff1916817bffffffffffffffffffffffffffffffffffffffffffffffffffffffff191614611577576040517f08c379a000000000000000000000000000000000000000000000000000000000815260040161156e906120f9565b60405180910390fd5b505b505050505050565b600080823b905060008111915050919050565b8280546115a09061250d565b90600052602060002090601f0160209004810192826115c25760008555611609565b82601f106115db57805160ff1916838001178555611609565b82800160010185558215611609579182015b828111156116085782518255916020019190600101906115ed565b5b509050611616919061161a565b5090565b5b8082111561163357600081600090555060010161161b565b5090565b600061164a611645846122a2565b61227d565b9050808382526020820190508285602086028201111561166d5761166c61269c565b5b60005b8581101561169d5781611683888261179b565b845260208401935060208301925050600181019050611670565b5050509392505050565b60006116ba6116b5846122ce565b61227d565b905080838252602082019050828560208602820111156116dd576116dc61269c565b5b60005b8581101561170d57816116f388826118a7565b8452602084019350602083019250506001810190506116e0565b5050509392505050565b600061172a611725846122fa565b61227d565b905082815260208101848484011115611746576117456126a1565b5b6117518482856124cb565b509392505050565b600061176c6117678461232b565b61227d565b905082815260208101848484011115611788576117876126a1565b5b6117938482856124cb565b509392505050565b6000813590506117aa81612ac9565b92915050565b600082601f8301126117c5576117c4612697565b5b81356117d5848260208601611637565b91505092915050565b600082601f8301126117f3576117f2612697565b5b81356118038482602086016116a7565b91505092915050565b60008135905061181b81612ae0565b92915050565b60008135905061183081612af7565b92915050565b60008151905061184581612af7565b92915050565b600082601f8301126118605761185f612697565b5b8135611870848260208601611717565b91505092915050565b600082601f83011261188e5761188d612697565b5b813561189e848260208601611759565b91505092915050565b6000813590506118b681612b0e565b92915050565b600080604083850312156118d3576118d26126ab565b5b60006118e18582860161179b565b92505060206118f28582860161179b565b9150509250929050565b600080600080600060a08688031215611918576119176126ab565b5b60006119268882890161179b565b95505060206119378882890161179b565b945050604086013567ffffffffffffffff811115611958576119576126a6565b5b611964888289016117de565b935050606086013567ffffffffffffffff811115611985576119846126a6565b5b611991888289016117de565b925050608086013567ffffffffffffffff8111156119b2576119b16126a6565b5b6119be8882890161184b565b9150509295509295909350565b600080600080600060a086880312156119e7576119e66126ab565b5b60006119f58882890161179b565b9550506020611a068882890161179b565b9450506040611a17888289016118a7565b9350506060611a28888289016118a7565b925050608086013567ffffffffffffffff811115611a4957611a486126a6565b5b611a558882890161184b565b9150509295509295909350565b60008060408385031215611a7957611a786126ab565b5b6000611a878582860161179b565b9250506020611a988582860161180c565b9150509250929050565b60008060408385031215611ab957611ab86126ab565b5b6000611ac78582860161179b565b9250506020611ad8858286016118a7565b9150509250929050565b60008060408385031215611af957611af86126ab565b5b600083013567ffffffffffffffff811115611b1757611b166126a6565b5b611b23858286016117b0565b925050602083013567ffffffffffffffff811115611b4457611b436126a6565b5b611b50858286016117de565b9150509250929050565b600060208284031215611b7057611b6f6126ab565b5b6000611b7e84828501611821565b91505092915050565b600060208284031215611b9d57611b9c6126ab565b5b6000611bab84828501611836565b91505092915050565b600060208284031215611bca57611bc96126ab565b5b6000611bd8848285016118a7565b91505092915050565b60008060408385031215611bf857611bf76126ab565b5b6000611c06858286016118a7565b925050602083013567ffffffffffffffff811115611c2757611c266126a6565b5b611c3385828601611879565b9150509250929050565b60008060008060808587031215611c5757611c566126ab565b5b6000611c65878288016118a7565b9450506020611c76878288016118a7565b935050604085013567ffffffffffffffff811115611c9757611c966126a6565b5b611ca38782880161184b565b925050606085013567ffffffffffffffff811115611cc457611cc36126a6565b5b611cd087828801611879565b91505092959194509250565b6000611ce88383611f63565b60208301905092915050565b611cfd81612457565b82525050565b6000611d0e8261236c565b611d18818561239a565b9350611d238361235c565b8060005b83811015611d54578151611d3b8882611cdc565b9750611d468361238d565b925050600181019050611d27565b5085935050505092915050565b611d6a81612469565b82525050565b6000611d7b82612377565b611d8581856123ab565b9350611d958185602086016124da565b611d9e816126b0565b840191505092915050565b6000611db482612382565b611dbe81856123bc565b9350611dce8185602086016124da565b611dd7816126b0565b840191505092915050565b6000611def6034836123bc565b9150611dfa826126ce565b604082019050919050565b6000611e126028836123bc565b9150611e1d8261271d565b604082019050919050565b6000611e35602b836123bc565b9150611e408261276c565b604082019050919050565b6000611e586029836123bc565b9150611e63826127bb565b604082019050919050565b6000611e7b6025836123bc565b9150611e868261280a565b604082019050919050565b6000611e9e6032836123bc565b9150611ea982612859565b604082019050919050565b6000611ec1602a836123bc565b9150611ecc826128a8565b604082019050919050565b6000611ee46029836123bc565b9150611eef826128f7565b604082019050919050565b6000611f076029836123bc565b9150611f1282612946565b604082019050919050565b6000611f2a6028836123bc565b9150611f3582612995565b604082019050919050565b6000611f4d6021836123bc565b9150611f58826129e4565b604082019050919050565b611f6c816124c1565b82525050565b611f7b816124c1565b82525050565b600060a082019050611f966000830188611cf4565b611fa36020830187611cf4565b8181036040830152611fb58186611d03565b90508181036060830152611fc98185611d03565b90508181036080830152611fdd8184611d70565b90509695505050505050565b600060a082019050611ffe6000830188611cf4565b61200b6020830187611cf4565b6120186040830186611f72565b6120256060830185611f72565b81810360808301526120378184611d70565b90509695505050505050565b6000602082019050818103600083015261205d8184611d03565b905092915050565b6000604082019050818103600083015261207f8185611d03565b905081810360208301526120938184611d03565b90509392505050565b60006020820190506120b16000830184611d61565b92915050565b600060208201905081810360008301526120d18184611da9565b905092915050565b600060208201905081810360008301526120f281611de2565b9050919050565b6000602082019050818103600083015261211281611e05565b9050919050565b6000602082019050818103600083015261213281611e28565b9050919050565b6000602082019050818103600083015261215281611e4b565b9050919050565b6000602082019050818103600083015261217281611e6e565b9050919050565b6000602082019050818103600083015261219281611e91565b9050919050565b600060208201905081810360008301526121b281611eb4565b9050919050565b600060208201905081810360008301526121d281611ed7565b9050919050565b600060208201905081810360008301526121f281611efa565b9050919050565b6000602082019050818103600083015261221281611f1d565b9050919050565b6000602082019050818103600083015261223281611f40565b9050919050565b600060208201905061224e6000830184611f72565b92915050565b60006040820190506122696000830185611f72565b6122766020830184611f72565b9392505050565b6000612287612298565b9050612293828261253f565b919050565b6000604051905090565b600067ffffffffffffffff8211156122bd576122bc612646565b5b602082029050602081019050919050565b600067ffffffffffffffff8211156122e9576122e8612646565b5b602082029050602081019050919050565b600067ffffffffffffffff82111561231557612314612646565b5b61231e826126b0565b9050602081019050919050565b600067ffffffffffffffff82111561234657612345612646565b5b61234f826126b0565b9050602081019050919050565b6000819050602082019050919050565b600081519050919050565b600081519050919050565b600081519050919050565b6000602082019050919050565b600082825260208201905092915050565b600082825260208201905092915050565b600082825260208201905092915050565b60006123d8826124c1565b91506123e3836124c1565b9250827fffffffffffffffffffffffffffffffffffffffffffffffffffffffffffffffff03821115612418576124176125b9565b5b828201905092915050565b600061242e826124c1565b9150612439836124c1565b92508282101561244c5761244b6125b9565b5b828203905092915050565b6000612462826124a1565b9050919050565b60008115159050919050565b60007fffffffff0000000000000000000000000000000000000000000000000000000082169050919050565b600073ffffffffffffffffffffffffffffffffffffffff82169050919050565b6000819050919050565b82818337600083830152505050565b60005b838110156124f85780820151818401526020810190506124dd565b83811115612507576000848401525b50505050565b6000600282049050600182168061252557607f821691505b60208210811415612539576125386125e8565b5b50919050565b612548826126b0565b810181811067ffffffffffffffff8211171561256757612566612646565b5b80604052505050565b600061257b826124c1565b91507fffffffffffffffffffffffffffffffffffffffffffffffffffffffffffffffff8214156125ae576125ad6125b9565b5b600182019050919050565b7f4e487b7100000000000000000000000000000000000000000000000000000000600052601160045260246000fd5b7f4e487b7100000000000000000000000000000000000000000000000000000000600052602260045260246000fd5b7f4e487b7100000000000000000000000000000000000000000000000000000000600052603260045260246000fd5b7f4e487b7100000000000000000000000000000000000000000000000000000000600052604160045260246000fd5b600060033d11156126945760046000803e6126916000516126c1565b90505b90565b600080fd5b600080fd5b600080fd5b600080fd5b600080fd5b6000601f19601f8301169050919050565b60008160e01c9050919050565b7f455243313135353a207472616e7366657220746f206e6f6e204552433131353560008201527f526563656976657220696d706c656d656e746572000000000000000000000000602082015250565b7f455243313135353a204552433131353552656365697665722072656a6563746560008201527f6420746f6b656e73000000000000000000000000000000000000000000000000602082015250565b7f455243313135353a2062616c616e636520717565727920666f7220746865207a60008201527f65726f2061646472657373000000000000000000000000000000000000000000602082015250565b7f455243313135353a2063616c6c6572206973206e6f74206f776e6572206e6f7260008201527f20617070726f7665640000000000000000000000000000000000000000000000602082015250565b7f455243313135353a207472616e7366657220746f20746865207a65726f20616460008201527f6472657373000000000000000000000000000000000000000000000000000000602082015250565b7f455243313135353a207472616e736665722063616c6c6572206973206e6f742060008201527f6f776e6572206e6f7220617070726f7665640000000000000000000000000000602082015250565b7f455243313135353a20696e73756666696369656e742062616c616e636520666f60008201527f72207472616e7366657200000000000000000000000000000000000000000000602082015250565b7f455243313135353a2073657474696e6720617070726f76616c2073746174757360008201527f20666f722073656c660000000000000000000000000000000000000000000000602082015250565b7f455243313135353a206163636f756e747320616e6420696473206c656e67746860008201527f206d69736d617463680000000000000000000000000000000000000000000000602082015250565b7f455243313135353a2069647320616e6420616d6f756e7473206c656e6774682060008201527f6d69736d61746368000000000000000000000000000000000000000000000000602082015250565b7f455243313135353a206d696e7420746f20746865207a65726f2061646472657360008201527f7300000000000000000000000000000000000000000000000000000000000000602082015250565b600060443d1015612a4357612ac6565b612a4b612298565b60043d036004823e80513d602482011167ffffffffffffffff82111715612a73575050612ac6565b808201805167ffffffffffffffff811115612a915750505050612ac6565b80602083010160043d038501811115612aae575050505050612ac6565b612abd8260200185018661253f565b82955050505050505b90565b612ad281612457565b8114612add57600080fd5b50565b612ae981612469565b8114612af457600080fd5b50565b612b0081612475565b8114612b0b57600080fd5b50565b612b17816124c1565b8114612b2257600080fd5b5056fea2646970667358221220eb868469547774d99b79b6c3352b4851284dc295f748bbc30210dd67266bae0b64736f6c63430008050033",
  "immutableReferences": {},
  "source": "//SPDX-License-Identifier: MIT License\r\npragma solidity ^0.8.0;\r\n\r\nimport \"@openzeppelin/contracts/token/ERC1155/ERC1155.sol\";\r\n\r\ncontract Image is ERC1155 {\r\n\r\n    mapping(uint256 => bool) _idExistTracker;\r\n\r\n    mapping(uint256 => string) _uriOfId;\r\n\r\n    constructor() ERC1155(\"\") {\r\n        // _mint(msg.sender, GOLD, 10**18, \"\");\r\n    }\r\n\r\n    //function to create an NFT - mint and set the uri\r\n    function createNFT(uint256 _id, uint256 _amount, bytes memory _data, string memory _uri) public{\r\n        // require some lists - maybe id and uri?\r\n        require(!_idExistTracker[_id]);\r\n\r\n        \r\n\r\n        _mint(msg.sender, _id, _amount, _data);\r\n        addId(_id);\r\n        // add uri to bool list here\r\n\r\n        setIdURI(_id, _uri);\r\n    }\r\n\r\n    // function to change the URI of a particular NFT\r\n    function changeURI (uint _id, string memory _newuri ) public{\r\n        // _setURI(_newuri);\r\n\r\n        //remove old uri from bool list here\r\n        \r\n        // new uri\r\n        setIdURI(_id, _newuri);\r\n        _setURI(_newuri);\r\n    }\r\n\r\n    function addId (uint256 _id) private{\r\n        _idExistTracker[_id] = true;\r\n    }\r\n\r\n    function setIdURI (uint256 _anId, string memory _aUri) private{\r\n        _uriOfId[_anId] = _aUri;\r\n    }\r\n\r\n}",
  "sourcePath": "C:/Users/01uni/Documents/GitHub/image_nft_project_actual/image_nft_project/src/contracts/Image.sol",
  "compiler": {
    "name": "solc",
    "version": "0.8.5+commit.a4f2e591.Emscripten.clang"
  },
  "schemaVersion": "3.4.1",
  "updatedAt": "2021-06-15T09:55:47.092Z",
  "devdoc": {
    "kind": "dev",
    "methods": {
      "balanceOf(address,uint256)": {
        "details": "See {IERC1155-balanceOf}. Requirements: - `account` cannot be the zero address."
      },
      "balanceOfBatch(address[],uint256[])": {
        "details": "See {IERC1155-balanceOfBatch}. Requirements: - `accounts` and `ids` must have the same length."
      },
      "isApprovedForAll(address,address)": {
        "details": "See {IERC1155-isApprovedForAll}."
      },
      "safeBatchTransferFrom(address,address,uint256[],uint256[],bytes)": {
        "details": "See {IERC1155-safeBatchTransferFrom}."
      },
      "safeTransferFrom(address,address,uint256,uint256,bytes)": {
        "details": "See {IERC1155-safeTransferFrom}."
      },
      "setApprovalForAll(address,bool)": {
        "details": "See {IERC1155-setApprovalForAll}."
      },
      "supportsInterface(bytes4)": {
        "details": "See {IERC165-supportsInterface}."
      },
      "uri(uint256)": {
        "details": "See {IERC1155MetadataURI-uri}. This implementation returns the same URI for *all* token types. It relies on the token type ID substitution mechanism https://eips.ethereum.org/EIPS/eip-1155#metadata[defined in the EIP]. Clients calling this function must replace the `\\{id\\}` substring with the actual token type ID."
      }
    },
    "version": 1
  },
  "userdoc": {
    "kind": "user",
    "methods": {},
    "version": 1
  }
}