{
  "contractName": "Image",
  "abi": [
    {
      "inputs": [],
      "stateMutability": "nonpayable",
      "type": "constructor"
    },
    {
      "anonymous": false,
      "inputs": [
        {
          "indexed": true,
          "internalType": "address",
          "name": "account",
          "type": "address"
        },
        {
          "indexed": true,
          "internalType": "address",
          "name": "operator",
          "type": "address"
        },
        {
          "indexed": false,
          "internalType": "bool",
          "name": "approved",
          "type": "bool"
        }
      ],
      "name": "ApprovalForAll",
      "type": "event"
    },
    {
      "anonymous": false,
      "inputs": [
        {
          "indexed": true,
          "internalType": "address",
          "name": "operator",
          "type": "address"
        },
        {
          "indexed": true,
          "internalType": "address",
          "name": "from",
          "type": "address"
        },
        {
          "indexed": true,
          "internalType": "address",
          "name": "to",
          "type": "address"
        },
        {
          "indexed": false,
          "internalType": "uint256[]",
          "name": "ids",
          "type": "uint256[]"
        },
        {
          "indexed": false,
          "internalType": "uint256[]",
          "name": "values",
          "type": "uint256[]"
        }
      ],
      "name": "TransferBatch",
      "type": "event"
    },
    {
      "anonymous": false,
      "inputs": [
        {
          "indexed": true,
          "internalType": "address",
          "name": "operator",
          "type": "address"
        },
        {
          "indexed": true,
          "internalType": "address",
          "name": "from",
          "type": "address"
        },
        {
          "indexed": true,
          "internalType": "address",
          "name": "to",
          "type": "address"
        },
        {
          "indexed": false,
          "internalType": "uint256",
          "name": "id",
          "type": "uint256"
        },
        {
          "indexed": false,
          "internalType": "uint256",
          "name": "value",
          "type": "uint256"
        }
      ],
      "name": "TransferSingle",
      "type": "event"
    },
    {
      "anonymous": false,
      "inputs": [
        {
          "indexed": false,
          "internalType": "string",
          "name": "value",
          "type": "string"
        },
        {
          "indexed": true,
          "internalType": "uint256",
          "name": "id",
          "type": "uint256"
        }
      ],
      "name": "URI",
      "type": "event"
    },
    {
      "inputs": [
        {
          "internalType": "address",
          "name": "account",
          "type": "address"
        },
        {
          "internalType": "uint256",
          "name": "id",
          "type": "uint256"
        }
      ],
      "name": "balanceOf",
      "outputs": [
        {
          "internalType": "uint256",
          "name": "",
          "type": "uint256"
        }
      ],
      "stateMutability": "view",
      "type": "function",
      "constant": true
    },
    {
      "inputs": [
        {
          "internalType": "address[]",
          "name": "accounts",
          "type": "address[]"
        },
        {
          "internalType": "uint256[]",
          "name": "ids",
          "type": "uint256[]"
        }
      ],
      "name": "balanceOfBatch",
      "outputs": [
        {
          "internalType": "uint256[]",
          "name": "",
          "type": "uint256[]"
        }
      ],
      "stateMutability": "view",
      "type": "function",
      "constant": true
    },
    {
      "inputs": [
        {
          "internalType": "address",
          "name": "account",
          "type": "address"
        },
        {
          "internalType": "address",
          "name": "operator",
          "type": "address"
        }
      ],
      "name": "isApprovedForAll",
      "outputs": [
        {
          "internalType": "bool",
          "name": "",
          "type": "bool"
        }
      ],
      "stateMutability": "view",
      "type": "function",
      "constant": true
    },
    {
      "inputs": [
        {
          "internalType": "address",
          "name": "from",
          "type": "address"
        },
        {
          "internalType": "address",
          "name": "to",
          "type": "address"
        },
        {
          "internalType": "uint256[]",
          "name": "ids",
          "type": "uint256[]"
        },
        {
          "internalType": "uint256[]",
          "name": "amounts",
          "type": "uint256[]"
        },
        {
          "internalType": "bytes",
          "name": "data",
          "type": "bytes"
        }
      ],
      "name": "safeBatchTransferFrom",
      "outputs": [],
      "stateMutability": "nonpayable",
      "type": "function"
    },
    {
      "inputs": [
        {
          "internalType": "address",
          "name": "from",
          "type": "address"
        },
        {
          "internalType": "address",
          "name": "to",
          "type": "address"
        },
        {
          "internalType": "uint256",
          "name": "id",
          "type": "uint256"
        },
        {
          "internalType": "uint256",
          "name": "amount",
          "type": "uint256"
        },
        {
          "internalType": "bytes",
          "name": "data",
          "type": "bytes"
        }
      ],
      "name": "safeTransferFrom",
      "outputs": [],
      "stateMutability": "nonpayable",
      "type": "function"
    },
    {
      "inputs": [
        {
          "internalType": "address",
          "name": "operator",
          "type": "address"
        },
        {
          "internalType": "bool",
          "name": "approved",
          "type": "bool"
        }
      ],
      "name": "setApprovalForAll",
      "outputs": [],
      "stateMutability": "nonpayable",
      "type": "function"
    },
    {
      "inputs": [
        {
          "internalType": "bytes4",
          "name": "interfaceId",
          "type": "bytes4"
        }
      ],
      "name": "supportsInterface",
      "outputs": [
        {
          "internalType": "bool",
          "name": "",
          "type": "bool"
        }
      ],
      "stateMutability": "view",
      "type": "function",
      "constant": true
    },
    {
      "inputs": [
        {
          "internalType": "uint256",
          "name": "_id",
          "type": "uint256"
        },
        {
          "internalType": "uint256",
          "name": "_amount",
          "type": "uint256"
        },
        {
          "internalType": "bytes",
          "name": "_data",
          "type": "bytes"
        },
        {
          "internalType": "string",
          "name": "_uri",
          "type": "string"
        }
      ],
      "name": "createNFT",
      "outputs": [],
      "stateMutability": "nonpayable",
      "type": "function"
    },
    {
      "inputs": [
        {
          "internalType": "uint256",
          "name": "id",
          "type": "uint256"
        }
      ],
      "name": "uri",
      "outputs": [
        {
          "internalType": "string",
          "name": "",
          "type": "string"
        }
      ],
      "stateMutability": "view",
      "type": "function",
      "constant": true
    }
  ],
  "bytecode": "0x60806040523480156200001157600080fd5b506040518060200160405280600081525062000033816200003a60201b60201c565b506200016b565b80600290805190602001906200005292919062000056565b5050565b828054620000649062000106565b90600052602060002090601f016020900481019282620000885760008555620000d4565b82601f10620000a357805160ff1916838001178555620000d4565b82800160010185558215620000d4579182015b82811115620000d3578251825591602001919060010190620000b6565b5b509050620000e39190620000e7565b5090565b5b8082111562000102576000816000905550600101620000e8565b5090565b600060028204905060018216806200011f57607f821691505b602082108114156200013657620001356200013c565b5b50919050565b7f4e487b7100000000000000000000000000000000000000000000000000000000600052602260045260246000fd5b612ab8806200017b6000396000f3fe608060405234801561001057600080fd5b50600436106100925760003560e01c80634e1273f4116100665780634e1273f414610143578063a22cb46514610173578063d47cd8281461018f578063e985e9c5146101ab578063f242432a146101db57610092565b8062fdd58e1461009757806301ffc9a7146100c75780630e89341c146100f75780632eb2c2d614610127575b600080fd5b6100b160048036038101906100ac9190611a5b565b6101f7565b6040516100be9190612196565b60405180910390f35b6100e160048036038101906100dc9190611b13565b6102c0565b6040516100ee9190611ff9565b60405180910390f35b610111600480360381019061010c9190611b6d565b6103a2565b60405161011e9190612014565b60405180910390f35b610141600480360381019061013c91906118b5565b610447565b005b61015d60048036038101906101589190611a9b565b6107f1565b60405161016a9190611fa0565b60405180910390f35b61018d60048036038101906101889190611a1b565b61090a565b005b6101a960048036038101906101a49190611b9a565b610a8b565b005b6101c560048036038101906101c09190611875565b610adb565b6040516101d29190611ff9565b60405180910390f35b6101f560048036038101906101f09190611984565b610b6f565b005b60008073ffffffffffffffffffffffffffffffffffffffff168373ffffffffffffffffffffffffffffffffffffffff161415610268576040517f08c379a000000000000000000000000000000000000000000000000000000000815260040161025f90612076565b60405180910390fd5b60008083815260200190815260200160002060008473ffffffffffffffffffffffffffffffffffffffff1673ffffffffffffffffffffffffffffffffffffffff16815260200190815260200160002054905092915050565b60007fd9b67a26000000000000000000000000000000000000000000000000000000007bffffffffffffffffffffffffffffffffffffffffffffffffffffffff1916827bffffffffffffffffffffffffffffffffffffffffffffffffffffffff1916148061038b57507f0e89341c000000000000000000000000000000000000000000000000000000007bffffffffffffffffffffffffffffffffffffffffffffffffffffffff1916827bffffffffffffffffffffffffffffffffffffffffffffffffffffffff1916145b8061039b575061039a82610e87565b5b9050919050565b60606004600083815260200190815260200160002080546103c29061246a565b80601f01602080910402602001604051908101604052809291908181526020018280546103ee9061246a565b801561043b5780601f106104105761010080835404028352916020019161043b565b820191906000526020600020905b81548152906001019060200180831161041e57829003601f168201915b50505050509050919050565b815183511461048b576040517f08c379a000000000000000000000000000000000000000000000000000000000815260040161048290612156565b60405180910390fd5b600073ffffffffffffffffffffffffffffffffffffffff168473ffffffffffffffffffffffffffffffffffffffff1614156104fb576040517f08c379a00000000000000000000000000000000000000000000000000000000081526004016104f2906120b6565b60405180910390fd5b610503610ef1565b73ffffffffffffffffffffffffffffffffffffffff168573ffffffffffffffffffffffffffffffffffffffff161480610549575061054885610543610ef1565b610adb565b5b610588576040517f08c379a000000000000000000000000000000000000000000000000000000000815260040161057f906120d6565b60405180910390fd5b6000610592610ef1565b90506105a2818787878787610ef9565b60005b845181101561075c5760008582815181106105c3576105c2612574565b5b6020026020010151905060008583815181106105e2576105e1612574565b5b60200260200101519050600080600084815260200190815260200160002060008b73ffffffffffffffffffffffffffffffffffffffff1673ffffffffffffffffffffffffffffffffffffffff16815260200190815260200160002054905081811015610683576040517f08c379a000000000000000000000000000000000000000000000000000000000815260040161067a906120f6565b60405180910390fd5b818161068f9190612380565b60008085815260200190815260200160002060008c73ffffffffffffffffffffffffffffffffffffffff1673ffffffffffffffffffffffffffffffffffffffff168152602001908152602001600020819055508160008085815260200190815260200160002060008b73ffffffffffffffffffffffffffffffffffffffff1673ffffffffffffffffffffffffffffffffffffffff1681526020019081526020016000206000828254610741919061232a565b9250508190555050505080610755906124cd565b90506105a5565b508473ffffffffffffffffffffffffffffffffffffffff168673ffffffffffffffffffffffffffffffffffffffff168273ffffffffffffffffffffffffffffffffffffffff167f4a39dc06d4c0dbc64b70af90fd698a233a518aa5d07e595d983b8c0526c8f7fb87876040516107d3929190611fc2565b60405180910390a46107e9818787878787610f01565b505050505050565b60608151835114610837576040517f08c379a000000000000000000000000000000000000000000000000000000000815260040161082e90612136565b60405180910390fd5b6000835167ffffffffffffffff811115610854576108536125a3565b5b6040519080825280602002602001820160405280156108825781602001602082028036833780820191505090505b50905060005b84518110156108ff576108cf8582815181106108a7576108a6612574565b5b60200260200101518583815181106108c2576108c1612574565b5b60200260200101516101f7565b8282815181106108e2576108e1612574565b5b602002602001018181525050806108f8906124cd565b9050610888565b508091505092915050565b8173ffffffffffffffffffffffffffffffffffffffff16610929610ef1565b73ffffffffffffffffffffffffffffffffffffffff161415610980576040517f08c379a000000000000000000000000000000000000000000000000000000000815260040161097790612116565b60405180910390fd5b806001600061098d610ef1565b73ffffffffffffffffffffffffffffffffffffffff1673ffffffffffffffffffffffffffffffffffffffff16815260200190815260200160002060008473ffffffffffffffffffffffffffffffffffffffff1673ffffffffffffffffffffffffffffffffffffffff16815260200190815260200160002060006101000a81548160ff0219169083151502179055508173ffffffffffffffffffffffffffffffffffffffff16610a3a610ef1565b73ffffffffffffffffffffffffffffffffffffffff167f17307eab39ab6107e8899845ad3d59bd9653f200f220920489ca2b5937696c3183604051610a7f9190611ff9565b60405180910390a35050565b6003600085815260200190815260200160002060009054906101000a900460ff1615610ab657600080fd5b610abf846110e8565b610ac98482611117565b610ad533858585611143565b50505050565b6000600160008473ffffffffffffffffffffffffffffffffffffffff1673ffffffffffffffffffffffffffffffffffffffff16815260200190815260200160002060008373ffffffffffffffffffffffffffffffffffffffff1673ffffffffffffffffffffffffffffffffffffffff16815260200190815260200160002060009054906101000a900460ff16905092915050565b600073ffffffffffffffffffffffffffffffffffffffff168473ffffffffffffffffffffffffffffffffffffffff161415610bdf576040517f08c379a0000000000000000000000000000000000000000000000000000000008152600401610bd6906120b6565b60405180910390fd5b610be7610ef1565b73ffffffffffffffffffffffffffffffffffffffff168573ffffffffffffffffffffffffffffffffffffffff161480610c2d5750610c2c85610c27610ef1565b610adb565b5b610c6c576040517f08c379a0000000000000000000000000000000000000000000000000000000008152600401610c6390612096565b60405180910390fd5b6000610c76610ef1565b9050610c96818787610c87886112d9565b610c90886112d9565b87610ef9565b600080600086815260200190815260200160002060008873ffffffffffffffffffffffffffffffffffffffff1673ffffffffffffffffffffffffffffffffffffffff16815260200190815260200160002054905083811015610d2d576040517f08c379a0000000000000000000000000000000000000000000000000000000008152600401610d24906120f6565b60405180910390fd5b8381610d399190612380565b60008087815260200190815260200160002060008973ffffffffffffffffffffffffffffffffffffffff1673ffffffffffffffffffffffffffffffffffffffff168152602001908152602001600020819055508360008087815260200190815260200160002060008873ffffffffffffffffffffffffffffffffffffffff1673ffffffffffffffffffffffffffffffffffffffff1681526020019081526020016000206000828254610deb919061232a565b925050819055508573ffffffffffffffffffffffffffffffffffffffff168773ffffffffffffffffffffffffffffffffffffffff168373ffffffffffffffffffffffffffffffffffffffff167fc3d58168c5ae7397731d063d5bbf3d657854427343f4c083240f7aacaa2d0f628888604051610e689291906121b1565b60405180910390a4610e7e828888888888611353565b50505050505050565b60007f01ffc9a7000000000000000000000000000000000000000000000000000000007bffffffffffffffffffffffffffffffffffffffffffffffffffffffff1916827bffffffffffffffffffffffffffffffffffffffffffffffffffffffff1916149050919050565b600033905090565b505050505050565b610f208473ffffffffffffffffffffffffffffffffffffffff1661153a565b156110e0578373ffffffffffffffffffffffffffffffffffffffff1663bc197c8187878686866040518663ffffffff1660e01b8152600401610f66959493929190611ede565b602060405180830381600087803b158015610f8057600080fd5b505af1925050508015610fb157506040513d601f19601f82011682018060405250810190610fae9190611b40565b60015b61105757610fbd6125d2565b806308c379a0141561101a5750610fd2612990565b80610fdd575061101c565b806040517f08c379a00000000000000000000000000000000000000000000000000000000081526004016110119190612014565b60405180910390fd5b505b6040517f08c379a000000000000000000000000000000000000000000000000000000000815260040161104e90612036565b60405180910390fd5b63bc197c8160e01b7bffffffffffffffffffffffffffffffffffffffffffffffffffffffff1916817bffffffffffffffffffffffffffffffffffffffffffffffffffffffff1916146110de576040517f08c379a00000000000000000000000000000000000000000000000000000000081526004016110d590612056565b60405180910390fd5b505b505050505050565b60016003600083815260200190815260200160002060006101000a81548160ff02191690831515021790555050565b8060046000848152602001908152602001600020908051906020019061113e92919061154d565b505050565b600073ffffffffffffffffffffffffffffffffffffffff168473ffffffffffffffffffffffffffffffffffffffff1614156111b3576040517f08c379a00000000000000000000000000000000000000000000000000000000081526004016111aa90612176565b60405180910390fd5b60006111bd610ef1565b90506111de816000876111cf886112d9565b6111d8886112d9565b87610ef9565b8260008086815260200190815260200160002060008773ffffffffffffffffffffffffffffffffffffffff1673ffffffffffffffffffffffffffffffffffffffff168152602001908152602001600020600082825461123d919061232a565b925050819055508473ffffffffffffffffffffffffffffffffffffffff16600073ffffffffffffffffffffffffffffffffffffffff168273ffffffffffffffffffffffffffffffffffffffff167fc3d58168c5ae7397731d063d5bbf3d657854427343f4c083240f7aacaa2d0f6287876040516112bb9291906121b1565b60405180910390a46112d281600087878787611353565b5050505050565b60606000600167ffffffffffffffff8111156112f8576112f76125a3565b5b6040519080825280602002602001820160405280156113265781602001602082028036833780820191505090505b509050828160008151811061133e5761133d612574565b5b60200260200101818152505080915050919050565b6113728473ffffffffffffffffffffffffffffffffffffffff1661153a565b15611532578373ffffffffffffffffffffffffffffffffffffffff1663f23a6e6187878686866040518663ffffffff1660e01b81526004016113b8959493929190611f46565b602060405180830381600087803b1580156113d257600080fd5b505af192505050801561140357506040513d601f19601f820116820180604052508101906114009190611b40565b60015b6114a95761140f6125d2565b806308c379a0141561146c5750611424612990565b8061142f575061146e565b806040517f08c379a00000000000000000000000000000000000000000000000000000000081526004016114639190612014565b60405180910390fd5b505b6040517f08c379a00000000000000000000000000000000000000000000000000000000081526004016114a090612036565b60405180910390fd5b63f23a6e6160e01b7bffffffffffffffffffffffffffffffffffffffffffffffffffffffff1916817bffffffffffffffffffffffffffffffffffffffffffffffffffffffff191614611530576040517f08c379a000000000000000000000000000000000000000000000000000000000815260040161152790612056565b60405180910390fd5b505b505050505050565b600080823b905060008111915050919050565b8280546115599061246a565b90600052602060002090601f01602090048101928261157b57600085556115c2565b82601f1061159457805160ff19168380011785556115c2565b828001600101855582156115c2579182015b828111156115c15782518255916020019190600101906115a6565b5b5090506115cf91906115d3565b5090565b5b808211156115ec5760008160009055506001016115d4565b5090565b60006116036115fe846121ff565b6121da565b90508083825260208201905082856020860282011115611626576116256125f9565b5b60005b85811015611656578161163c8882611754565b845260208401935060208301925050600181019050611629565b5050509392505050565b600061167361166e8461222b565b6121da565b90508083825260208201905082856020860282011115611696576116956125f9565b5b60005b858110156116c657816116ac8882611860565b845260208401935060208301925050600181019050611699565b5050509392505050565b60006116e36116de84612257565b6121da565b9050828152602081018484840111156116ff576116fe6125fe565b5b61170a848285612428565b509392505050565b600061172561172084612288565b6121da565b905082815260208101848484011115611741576117406125fe565b5b61174c848285612428565b509392505050565b60008135905061176381612a26565b92915050565b600082601f83011261177e5761177d6125f4565b5b813561178e8482602086016115f0565b91505092915050565b600082601f8301126117ac576117ab6125f4565b5b81356117bc848260208601611660565b91505092915050565b6000813590506117d481612a3d565b92915050565b6000813590506117e981612a54565b92915050565b6000815190506117fe81612a54565b92915050565b600082601f830112611819576118186125f4565b5b81356118298482602086016116d0565b91505092915050565b600082601f830112611847576118466125f4565b5b8135611857848260208601611712565b91505092915050565b60008135905061186f81612a6b565b92915050565b6000806040838503121561188c5761188b612608565b5b600061189a85828601611754565b92505060206118ab85828601611754565b9150509250929050565b600080600080600060a086880312156118d1576118d0612608565b5b60006118df88828901611754565b95505060206118f088828901611754565b945050604086013567ffffffffffffffff81111561191157611910612603565b5b61191d88828901611797565b935050606086013567ffffffffffffffff81111561193e5761193d612603565b5b61194a88828901611797565b925050608086013567ffffffffffffffff81111561196b5761196a612603565b5b61197788828901611804565b9150509295509295909350565b600080600080600060a086880312156119a05761199f612608565b5b60006119ae88828901611754565b95505060206119bf88828901611754565b94505060406119d088828901611860565b93505060606119e188828901611860565b925050608086013567ffffffffffffffff811115611a0257611a01612603565b5b611a0e88828901611804565b9150509295509295909350565b60008060408385031215611a3257611a31612608565b5b6000611a4085828601611754565b9250506020611a51858286016117c5565b9150509250929050565b60008060408385031215611a7257611a71612608565b5b6000611a8085828601611754565b9250506020611a9185828601611860565b9150509250929050565b60008060408385031215611ab257611ab1612608565b5b600083013567ffffffffffffffff811115611ad057611acf612603565b5b611adc85828601611769565b925050602083013567ffffffffffffffff811115611afd57611afc612603565b5b611b0985828601611797565b9150509250929050565b600060208284031215611b2957611b28612608565b5b6000611b37848285016117da565b91505092915050565b600060208284031215611b5657611b55612608565b5b6000611b64848285016117ef565b91505092915050565b600060208284031215611b8357611b82612608565b5b6000611b9184828501611860565b91505092915050565b60008060008060808587031215611bb457611bb3612608565b5b6000611bc287828801611860565b9450506020611bd387828801611860565b935050604085013567ffffffffffffffff811115611bf457611bf3612603565b5b611c0087828801611804565b925050606085013567ffffffffffffffff811115611c2157611c20612603565b5b611c2d87828801611832565b91505092959194509250565b6000611c458383611ec0565b60208301905092915050565b611c5a816123b4565b82525050565b6000611c6b826122c9565b611c7581856122f7565b9350611c80836122b9565b8060005b83811015611cb1578151611c988882611c39565b9750611ca3836122ea565b925050600181019050611c84565b5085935050505092915050565b611cc7816123c6565b82525050565b6000611cd8826122d4565b611ce28185612308565b9350611cf2818560208601612437565b611cfb8161260d565b840191505092915050565b6000611d11826122df565b611d1b8185612319565b9350611d2b818560208601612437565b611d348161260d565b840191505092915050565b6000611d4c603483612319565b9150611d578261262b565b604082019050919050565b6000611d6f602883612319565b9150611d7a8261267a565b604082019050919050565b6000611d92602b83612319565b9150611d9d826126c9565b604082019050919050565b6000611db5602983612319565b9150611dc082612718565b604082019050919050565b6000611dd8602583612319565b9150611de382612767565b604082019050919050565b6000611dfb603283612319565b9150611e06826127b6565b604082019050919050565b6000611e1e602a83612319565b9150611e2982612805565b604082019050919050565b6000611e41602983612319565b9150611e4c82612854565b604082019050919050565b6000611e64602983612319565b9150611e6f826128a3565b604082019050919050565b6000611e87602883612319565b9150611e92826128f2565b604082019050919050565b6000611eaa602183612319565b9150611eb582612941565b604082019050919050565b611ec98161241e565b82525050565b611ed88161241e565b82525050565b600060a082019050611ef36000830188611c51565b611f006020830187611c51565b8181036040830152611f128186611c60565b90508181036060830152611f268185611c60565b90508181036080830152611f3a8184611ccd565b90509695505050505050565b600060a082019050611f5b6000830188611c51565b611f686020830187611c51565b611f756040830186611ecf565b611f826060830185611ecf565b8181036080830152611f948184611ccd565b90509695505050505050565b60006020820190508181036000830152611fba8184611c60565b905092915050565b60006040820190508181036000830152611fdc8185611c60565b90508181036020830152611ff08184611c60565b90509392505050565b600060208201905061200e6000830184611cbe565b92915050565b6000602082019050818103600083015261202e8184611d06565b905092915050565b6000602082019050818103600083015261204f81611d3f565b9050919050565b6000602082019050818103600083015261206f81611d62565b9050919050565b6000602082019050818103600083015261208f81611d85565b9050919050565b600060208201905081810360008301526120af81611da8565b9050919050565b600060208201905081810360008301526120cf81611dcb565b9050919050565b600060208201905081810360008301526120ef81611dee565b9050919050565b6000602082019050818103600083015261210f81611e11565b9050919050565b6000602082019050818103600083015261212f81611e34565b9050919050565b6000602082019050818103600083015261214f81611e57565b9050919050565b6000602082019050818103600083015261216f81611e7a565b9050919050565b6000602082019050818103600083015261218f81611e9d565b9050919050565b60006020820190506121ab6000830184611ecf565b92915050565b60006040820190506121c66000830185611ecf565b6121d36020830184611ecf565b9392505050565b60006121e46121f5565b90506121f0828261249c565b919050565b6000604051905090565b600067ffffffffffffffff82111561221a576122196125a3565b5b602082029050602081019050919050565b600067ffffffffffffffff821115612246576122456125a3565b5b602082029050602081019050919050565b600067ffffffffffffffff821115612272576122716125a3565b5b61227b8261260d565b9050602081019050919050565b600067ffffffffffffffff8211156122a3576122a26125a3565b5b6122ac8261260d565b9050602081019050919050565b6000819050602082019050919050565b600081519050919050565b600081519050919050565b600081519050919050565b6000602082019050919050565b600082825260208201905092915050565b600082825260208201905092915050565b600082825260208201905092915050565b60006123358261241e565b91506123408361241e565b9250827fffffffffffffffffffffffffffffffffffffffffffffffffffffffffffffffff0382111561237557612374612516565b5b828201905092915050565b600061238b8261241e565b91506123968361241e565b9250828210156123a9576123a8612516565b5b828203905092915050565b60006123bf826123fe565b9050919050565b60008115159050919050565b60007fffffffff0000000000000000000000000000000000000000000000000000000082169050919050565b600073ffffffffffffffffffffffffffffffffffffffff82169050919050565b6000819050919050565b82818337600083830152505050565b60005b8381101561245557808201518184015260208101905061243a565b83811115612464576000848401525b50505050565b6000600282049050600182168061248257607f821691505b6020821081141561249657612495612545565b5b50919050565b6124a58261260d565b810181811067ffffffffffffffff821117156124c4576124c36125a3565b5b80604052505050565b60006124d88261241e565b91507fffffffffffffffffffffffffffffffffffffffffffffffffffffffffffffffff82141561250b5761250a612516565b5b600182019050919050565b7f4e487b7100000000000000000000000000000000000000000000000000000000600052601160045260246000fd5b7f4e487b7100000000000000000000000000000000000000000000000000000000600052602260045260246000fd5b7f4e487b7100000000000000000000000000000000000000000000000000000000600052603260045260246000fd5b7f4e487b7100000000000000000000000000000000000000000000000000000000600052604160045260246000fd5b600060033d11156125f15760046000803e6125ee60005161261e565b90505b90565b600080fd5b600080fd5b600080fd5b600080fd5b600080fd5b6000601f19601f8301169050919050565b60008160e01c9050919050565b7f455243313135353a207472616e7366657220746f206e6f6e204552433131353560008201527f526563656976657220696d706c656d656e746572000000000000000000000000602082015250565b7f455243313135353a204552433131353552656365697665722072656a6563746560008201527f6420746f6b656e73000000000000000000000000000000000000000000000000602082015250565b7f455243313135353a2062616c616e636520717565727920666f7220746865207a60008201527f65726f2061646472657373000000000000000000000000000000000000000000602082015250565b7f455243313135353a2063616c6c6572206973206e6f74206f776e6572206e6f7260008201527f20617070726f7665640000000000000000000000000000000000000000000000602082015250565b7f455243313135353a207472616e7366657220746f20746865207a65726f20616460008201527f6472657373000000000000000000000000000000000000000000000000000000602082015250565b7f455243313135353a207472616e736665722063616c6c6572206973206e6f742060008201527f6f776e6572206e6f7220617070726f7665640000000000000000000000000000602082015250565b7f455243313135353a20696e73756666696369656e742062616c616e636520666f60008201527f72207472616e7366657200000000000000000000000000000000000000000000602082015250565b7f455243313135353a2073657474696e6720617070726f76616c2073746174757360008201527f20666f722073656c660000000000000000000000000000000000000000000000602082015250565b7f455243313135353a206163636f756e747320616e6420696473206c656e67746860008201527f206d69736d617463680000000000000000000000000000000000000000000000602082015250565b7f455243313135353a2069647320616e6420616d6f756e7473206c656e6774682060008201527f6d69736d61746368000000000000000000000000000000000000000000000000602082015250565b7f455243313135353a206d696e7420746f20746865207a65726f2061646472657360008201527f7300000000000000000000000000000000000000000000000000000000000000602082015250565b600060443d10156129a057612a23565b6129a86121f5565b60043d036004823e80513d602482011167ffffffffffffffff821117156129d0575050612a23565b808201805167ffffffffffffffff8111156129ee5750505050612a23565b80602083010160043d038501811115612a0b575050505050612a23565b612a1a8260200185018661249c565b82955050505050505b90565b612a2f816123b4565b8114612a3a57600080fd5b50565b612a46816123c6565b8114612a5157600080fd5b50565b612a5d816123d2565b8114612a6857600080fd5b50565b612a748161241e565b8114612a7f57600080fd5b5056fea264697066735822122055063c116f2d6a42a85c37309f6aa2a17759c30c9de11a020faf659b0333698f64736f6c63430008050033",
  "immutableReferences": {},
  "source": "//SPDX-License-Identifier: MIT License\r\npragma solidity ^0.8.0;\r\n\r\nimport \"@openzeppelin/contracts/token/ERC1155/ERC1155.sol\";\r\n\r\ncontract Image is ERC1155 {\r\n\r\n    mapping(uint256 => bool) _idExistTracker;\r\n\r\n    mapping(uint256 => string) _uriOfId;\r\n\r\n    constructor() ERC1155(\"\") {\r\n        // _mint(msg.sender, GOLD, 10**18, \"\");\r\n    }\r\n\r\n    //function to create an NFT - mint and set the uri\r\n    function createNFT(uint256 _id, uint256 _amount, bytes memory _data, string memory _uri) public{\r\n        // require that the id is unique (does not exist already)\r\n        require(!_idExistTracker[_id]);\r\n\r\n        addId(_id);\r\n\r\n        setIdURI(_id, _uri);\r\n\r\n        _mint(msg.sender, _id, _amount, _data);\r\n        \r\n    }\r\n\r\n    function addId (uint256 _id) private{\r\n        _idExistTracker[_id] = true;\r\n    }\r\n\r\n    // function to change (from empty or existing) the URI of a particular NFT\r\n    function setIdURI (uint256 _anId, string memory _aUri) private{\r\n        _uriOfId[_anId] = _aUri;\r\n    }\r\n\r\n    //returns the uri of the object with the id as input\r\n    function uri(uint256 id) public view virtual override returns (string memory) {\r\n        return _uriOfId[id];\r\n    }\r\n\r\n}",
  "sourcePath": "C:/Users/01uni/Documents/GitHub/image_nft_project_actual/image_nft_project/src/contracts/Image.sol",
  "compiler": {
    "name": "solc",
    "version": "0.8.5+commit.a4f2e591.Emscripten.clang"
  },
  "schemaVersion": "3.4.1",
  "updatedAt": "2021-06-16T02:20:24.670Z",
  "networkType": "ethereum",
  "devdoc": {
    "kind": "dev",
    "methods": {
      "balanceOf(address,uint256)": {
        "details": "See {IERC1155-balanceOf}. Requirements: - `account` cannot be the zero address."
      },
      "balanceOfBatch(address[],uint256[])": {
        "details": "See {IERC1155-balanceOfBatch}. Requirements: - `accounts` and `ids` must have the same length."
      },
      "isApprovedForAll(address,address)": {
        "details": "See {IERC1155-isApprovedForAll}."
      },
      "safeBatchTransferFrom(address,address,uint256[],uint256[],bytes)": {
        "details": "See {IERC1155-safeBatchTransferFrom}."
      },
      "safeTransferFrom(address,address,uint256,uint256,bytes)": {
        "details": "See {IERC1155-safeTransferFrom}."
      },
      "setApprovalForAll(address,bool)": {
        "details": "See {IERC1155-setApprovalForAll}."
      },
      "supportsInterface(bytes4)": {
        "details": "See {IERC165-supportsInterface}."
      }
    },
    "version": 1
  },
  "userdoc": {
    "kind": "user",
    "methods": {},
    "version": 1
  }
}